{"contracts/SecureLedger.sol":{"SecureLedger":{"abi":[{"inputs":[],"name":"InvalidInitialization","type":"error"},{"inputs":[],"name":"NotInitializing","type":"error"},{"inputs":[{"internalType":"address","name":"owner","type":"address"}],"name":"OwnableInvalidOwner","type":"error"},{"inputs":[{"internalType":"address","name":"account","type":"address"}],"name":"OwnableUnauthorizedAccount","type":"error"},{"anonymous":false,"inputs":[{"indexed":true,"internalType":"address","name":"_AuthorAddress","type":"address"},{"indexed":false,"internalType":"string","name":"dataName","type":"string"},{"indexed":false,"internalType":"string","name":"commit","type":"string"}],"name":"DataUpdated","type":"event"},{"anonymous":false,"inputs":[{"indexed":true,"internalType":"address","name":"_AuthorAddress","type":"address"},{"indexed":false,"internalType":"string","name":"dataName","type":"string"}],"name":"DataUploaded","type":"event"},{"anonymous":false,"inputs":[{"indexed":false,"internalType":"uint64","name":"version","type":"uint64"}],"name":"Initialized","type":"event"},{"anonymous":false,"inputs":[{"indexed":true,"internalType":"address","name":"previousOwner","type":"address"},{"indexed":true,"internalType":"address","name":"newOwner","type":"address"}],"name":"OwnershipTransferred","type":"event"},{"inputs":[{"internalType":"address","name":"_author","type":"address"},{"internalType":"string","name":"_name","type":"string"},{"internalType":"string","name":"_newContent","type":"string"}],"name":"checkDataIntegrity","outputs":[{"internalType":"string","name":"","type":"string"},{"components":[{"internalType":"bytes32","name":"Hash","type":"bytes32"},{"internalType":"string[]","name":"Commits","type":"string[]"},{"internalType":"uint256[]","name":"timestamp","type":"uint256[]"}],"internalType":"struct SecureLedger.Details","name":"","type":"tuple"}],"stateMutability":"view","type":"function"},{"inputs":[],"name":"getHistory","outputs":[{"components":[{"internalType":"string","name":"dataName","type":"string"},{"internalType":"uint256","name":"timestamp","type":"uint256"}],"internalType":"struct SecureLedger.DataUploadInfo[]","name":"","type":"tuple[]"}],"stateMutability":"view","type":"function"},{"inputs":[{"internalType":"address","name":"initialOwner","type":"address"}],"name":"initialize","outputs":[],"stateMutability":"nonpayable","type":"function"},{"inputs":[],"name":"owner","outputs":[{"internalType":"address","name":"","type":"address"}],"stateMutability":"view","type":"function"},{"inputs":[],"name":"renounceOwnership","outputs":[],"stateMutability":"nonpayable","type":"function"},{"inputs":[{"internalType":"address","name":"newOwner","type":"address"}],"name":"transferOwnership","outputs":[],"stateMutability":"nonpayable","type":"function"},{"inputs":[{"internalType":"string","name":"_name","type":"string"},{"internalType":"string","name":"_content","type":"string"},{"internalType":"string","name":"_commit","type":"string"}],"name":"updateData","outputs":[],"stateMutability":"nonpayable","type":"function"},{"inputs":[{"internalType":"string","name":"_name","type":"string"},{"internalType":"string","name":"_content","type":"string"},{"internalType":"string","name":"_commit","type":"string"}],"name":"uploadData","outputs":[],"stateMutability":"nonpayable","type":"function"}],"evm":{"bytecode":{"linkReferences":{},"object":"608060405234801561001057600080fd5b50612156806100206000396000f3fe608060405234801561001057600080fd5b50600436106100885760003560e01c8063aa15efc81161005b578063aa15efc8146100ed578063c4d66de81461010b578063ce71167a14610127578063f2fde38b1461015857610088565b806355995dba1461008d578063715018a6146100a957806375700b5e146100b35780638da5cb5b146100cf575b600080fd5b6100a760048036038101906100a291906112e7565b610174565b005b6100b1610385565b005b6100cd60048036038101906100c891906112e7565b610399565b005b6100d7610653565b6040516100e491906113cf565b60405180910390f35b6100f561068b565b6040516101029190611581565b60405180910390f35b610125600480360381019061012091906115cf565b610848565b005b610141600480360381019061013c91906115fc565b6109d7565b60405161014f9291906118b2565b60405180910390f35b610172600480360381019061016d91906115cf565b610ced565b005b6000801b600460003373ffffffffffffffffffffffffffffffffffffffff1673ffffffffffffffffffffffffffffffffffffffff168152602001908152602001600020846040516101c59190611925565b90815260200160405180910390206000015403610217576040517f08c379a000000000000000000000000000000000000000000000000000000000815260040161020e906119ae565b60405180910390fd5b600061022283610d73565b905060004290508160008001819055506000600101839080600181540180825580915050600190039060005260206000200160009091909190915090816102699190611bda565b5060006002018190806001815401808255809150506001900390600052602060002001600090919091909150556000600460003373ffffffffffffffffffffffffffffffffffffffff1673ffffffffffffffffffffffffffffffffffffffff168152602001908152602001600020866040516102e59190611925565b9081526020016040518091039020600082015481600001556001820181600101908054610313929190611039565b50600282018160020190805461032a929190611096565b509050503373ffffffffffffffffffffffffffffffffffffffff167f33a71a1f34ba6e443575dfe592a9e028cdb57b5c58db3be38fa1c78a05770ec68685604051610376929190611cac565b60405180910390a25050505050565b61038d610d89565b6103976000610e10565b565b60003390506000801b600460008373ffffffffffffffffffffffffffffffffffffffff1673ffffffffffffffffffffffffffffffffffffffff168152602001908152602001600020856040516103ef9190611925565b90815260200160405180910390206000015414610441576040517f08c379a000000000000000000000000000000000000000000000000000000000815260040161043890611d55565b60405180910390fd5b600061044c84610d73565b90506000429050600060405180604001604052808881526020018381525090508260008001819055506000600101859080600181540180825580915050600190039060005260206000200160009091909190915090816104ac9190611bda565b5060006002018290806001815401808255809150506001900390600052602060002001600090919091909150556000600460008673ffffffffffffffffffffffffffffffffffffffff1673ffffffffffffffffffffffffffffffffffffffff168152602001908152602001600020886040516105289190611925565b9081526020016040518091039020600082015481600001556001820181600101908054610556929190611039565b50600282018160020190805461056d929190611096565b50905050600360008573ffffffffffffffffffffffffffffffffffffffff1673ffffffffffffffffffffffffffffffffffffffff16815260200190815260200160002081908060018154018082558091505060019003906000526020600020906002020160009091909190915060008201518160000190816105ef9190611bda565b506020820151816001015550508373ffffffffffffffffffffffffffffffffffffffff167f259a579e559ab3f7888005dabd0f3b160733b0cce4bd694323f9b9303494f58e886040516106429190611d75565b60405180910390a250505050505050565b60008061065e610ee7565b90508060000160009054906101000a900473ffffffffffffffffffffffffffffffffffffffff1691505090565b60606000600360003373ffffffffffffffffffffffffffffffffffffffff1673ffffffffffffffffffffffffffffffffffffffff1681526020019081526020016000208054905003610712576040517f08c379a000000000000000000000000000000000000000000000000000000000815260040161070990611e09565b60405180910390fd5b600360003373ffffffffffffffffffffffffffffffffffffffff1673ffffffffffffffffffffffffffffffffffffffff168152602001908152602001600020805480602002602001604051908101604052809291908181526020016000905b8282101561083f57838290600052602060002090600202016040518060400160405290816000820180546107a4906119fd565b80601f01602080910402602001604051908101604052809291908181526020018280546107d0906119fd565b801561081d5780601f106107f25761010080835404028352916020019161081d565b820191906000526020600020905b81548152906001019060200180831161080057829003601f168201915b5050505050815260200160018201548152505081526020019060010190610771565b50505050905090565b6000610852610f0f565b905060008160000160089054906101000a900460ff1615905060008260000160009054906101000a900467ffffffffffffffff1690506000808267ffffffffffffffff161480156108a05750825b9050600060018367ffffffffffffffff161480156108d5575060003073ffffffffffffffffffffffffffffffffffffffff163b145b9050811580156108e3575080155b1561091a576040517ff92ee8a900000000000000000000000000000000000000000000000000000000815260040160405180910390fd5b60018560000160006101000a81548167ffffffffffffffff021916908367ffffffffffffffff160217905550831561096a5760018560000160086101000a81548160ff0219169083151502179055505b61097386610f37565b83156109cf5760008560000160086101000a81548160ff0219169083151502179055507fc7f505b2f371ae2175ee4913f4499e1f2633a7b5936321eed1cdaeb6115181d260016040516109c69190611e78565b60405180910390a15b505050505050565b60606109e16110e8565b60606000801b600460008873ffffffffffffffffffffffffffffffffffffffff1673ffffffffffffffffffffffffffffffffffffffff16815260200190815260200160002086604051610a349190611925565b90815260200160405180910390206000015403610a86576040517f08c379a0000000000000000000000000000000000000000000000000000000008152600401610a7d90611f51565b60405180910390fd5b6000600460008873ffffffffffffffffffffffffffffffffffffffff1673ffffffffffffffffffffffffffffffffffffffff16815260200190815260200160002086604051610ad59190611925565b90815260200160405180910390206000015490506000610af486610d73565b9050808203610b1d57604051806080016040528060568152602001612070605691399250610b39565b6040518060800160405280605b81526020016120c6605b913992505b82600460008a73ffffffffffffffffffffffffffffffffffffffff1673ffffffffffffffffffffffffffffffffffffffff16815260200190815260200160002088604051610b879190611925565b9081526020016040518091039020806040518060600160405290816000820154815260200160018201805480602002602001604051908101604052809291908181526020016000905b82821015610c7c578382906000526020600020018054610bef906119fd565b80601f0160208091040260200160405190810160405280929190818152602001828054610c1b906119fd565b8015610c685780601f10610c3d57610100808354040283529160200191610c68565b820191906000526020600020905b815481529060010190602001808311610c4b57829003601f168201915b505050505081526020019060010190610bd0565b50505050815260200160028201805480602002602001604051908101604052809291908181526020018280548015610cd357602002820191906000526020600020905b815481526020019060010190808311610cbf575b505050505081525050905094509450505050935093915050565b610cf5610d89565b600073ffffffffffffffffffffffffffffffffffffffff168173ffffffffffffffffffffffffffffffffffffffff1603610d675760006040517f1e4fbdf7000000000000000000000000000000000000000000000000000000008152600401610d5e91906113cf565b60405180910390fd5b610d7081610e10565b50565b6000808280519060200120905080915050919050565b610d91610f4b565b73ffffffffffffffffffffffffffffffffffffffff16610daf610653565b73ffffffffffffffffffffffffffffffffffffffff1614610e0e57610dd2610f4b565b6040517f118cdaa7000000000000000000000000000000000000000000000000000000008152600401610e0591906113cf565b60405180910390fd5b565b6000610e1a610ee7565b905060008160000160009054906101000a900473ffffffffffffffffffffffffffffffffffffffff169050828260000160006101000a81548173ffffffffffffffffffffffffffffffffffffffff021916908373ffffffffffffffffffffffffffffffffffffffff1602179055508273ffffffffffffffffffffffffffffffffffffffff168173ffffffffffffffffffffffffffffffffffffffff167f8be0079c531659141344cd1fd0a4f28419497f9722a3daafe3b4186f6b6457e060405160405180910390a3505050565b60007f9016d09d72d40fdae2fd8ceac6b6234c7706214fd39c1cd1e609a0528c199300905090565b60007ff0c57e16840df040f15088dc2f81fe391c3923bec73e23a9662efc9c229c6a00905090565b610f3f610f53565b610f4881610f93565b50565b600033905090565b610f5b611019565b610f91576040517fd7e6bcf800000000000000000000000000000000000000000000000000000000815260040160405180910390fd5b565b610f9b610f53565b600073ffffffffffffffffffffffffffffffffffffffff168173ffffffffffffffffffffffffffffffffffffffff160361100d5760006040517f1e4fbdf700000000000000000000000000000000000000000000000000000000815260040161100491906113cf565b60405180910390fd5b61101681610e10565b50565b6000611023610f0f565b60000160089054906101000a900460ff16905090565b8280548282559060005260206000209081019282156110855760005260206000209182015b8281111561108457828290816110749190611f87565b509160010191906001019061105e565b5b509050611092919061110c565b5090565b8280548282559060005260206000209081019282156110d75760005260206000209182015b828111156110d65782548255916001019190600101906110bb565b5b5090506110e49190611130565b5090565b60405180606001604052806000801916815260200160608152602001606081525090565b5b8082111561112c5760008181611123919061114d565b5060010161110d565b5090565b5b80821115611149576000816000905550600101611131565b5090565b508054611159906119fd565b6000825580601f1061116b575061118a565b601f0160209004906000526020600020908101906111899190611130565b5b50565b6000604051905090565b600080fd5b600080fd5b600080fd5b600080fd5b6000601f19601f8301169050919050565b7f4e487b7100000000000000000000000000000000000000000000000000000000600052604160045260246000fd5b6111f4826111ab565b810181811067ffffffffffffffff82111715611213576112126111bc565b5b80604052505050565b600061122661118d565b905061123282826111eb565b919050565b600067ffffffffffffffff821115611252576112516111bc565b5b61125b826111ab565b9050602081019050919050565b82818337600083830152505050565b600061128a61128584611237565b61121c565b9050828152602081018484840111156112a6576112a56111a6565b5b6112b1848285611268565b509392505050565b600082601f8301126112ce576112cd6111a1565b5b81356112de848260208601611277565b91505092915050565b600080600060608486031215611300576112ff611197565b5b600084013567ffffffffffffffff81111561131e5761131d61119c565b5b61132a868287016112b9565b935050602084013567ffffffffffffffff81111561134b5761134a61119c565b5b611357868287016112b9565b925050604084013567ffffffffffffffff8111156113785761137761119c565b5b611384868287016112b9565b9150509250925092565b600073ffffffffffffffffffffffffffffffffffffffff82169050919050565b60006113b98261138e565b9050919050565b6113c9816113ae565b82525050565b60006020820190506113e460008301846113c0565b92915050565b600081519050919050565b600082825260208201905092915050565b6000819050602082019050919050565b600081519050919050565b600082825260208201905092915050565b60005b83811015611450578082015181840152602081019050611435565b60008484015250505050565b600061146782611416565b6114718185611421565b9350611481818560208601611432565b61148a816111ab565b840191505092915050565b6000819050919050565b6114a881611495565b82525050565b600060408301600083015184820360008601526114cb828261145c565b91505060208301516114e0602086018261149f565b508091505092915050565b60006114f783836114ae565b905092915050565b6000602082019050919050565b6000611517826113ea565b61152181856113f5565b93508360208202850161153385611406565b8060005b8581101561156f578484038952815161155085826114eb565b945061155b836114ff565b925060208a01995050600181019050611537565b50829750879550505050505092915050565b6000602082019050818103600083015261159b818461150c565b905092915050565b6115ac816113ae565b81146115b757600080fd5b50565b6000813590506115c9816115a3565b92915050565b6000602082840312156115e5576115e4611197565b5b60006115f3848285016115ba565b91505092915050565b60008060006060848603121561161557611614611197565b5b6000611623868287016115ba565b935050602084013567ffffffffffffffff8111156116445761164361119c565b5b611650868287016112b9565b925050604084013567ffffffffffffffff8111156116715761167061119c565b5b61167d868287016112b9565b9150509250925092565b600082825260208201905092915050565b60006116a382611416565b6116ad8185611687565b93506116bd818560208601611432565b6116c6816111ab565b840191505092915050565b6000819050919050565b6116e4816116d1565b82525050565b600081519050919050565b600082825260208201905092915050565b6000819050602082019050919050565b6000611722838361145c565b905092915050565b6000602082019050919050565b6000611742826116ea565b61174c81856116f5565b93508360208202850161175e85611706565b8060005b8581101561179a578484038952815161177b8582611716565b94506117868361172a565b925060208a01995050600181019050611762565b50829750879550505050505092915050565b600081519050919050565b600082825260208201905092915050565b6000819050602082019050919050565b60006117e4838361149f565b60208301905092915050565b6000602082019050919050565b6000611808826117ac565b61181281856117b7565b935061181d836117c8565b8060005b8381101561184e57815161183588826117d8565b9750611840836117f0565b925050600181019050611821565b5085935050505092915050565b600060608301600083015161187360008601826116db565b506020830151848203602086015261188b8282611737565b915050604083015184820360408601526118a582826117fd565b9150508091505092915050565b600060408201905081810360008301526118cc8185611698565b905081810360208301526118e0818461185b565b90509392505050565b600081905092915050565b60006118ff82611416565b61190981856118e9565b9350611919818560208601611432565b80840191505092915050565b600061193182846118f4565b915081905092915050565b7f596f7520646f6e2774206861766520612072656769737472656420646174612060008201527f776974682074686973206e616d65202121000000000000000000000000000000602082015250565b6000611998603183611687565b91506119a38261193c565b604082019050919050565b600060208201905081810360008301526119c78161198b565b9050919050565b7f4e487b7100000000000000000000000000000000000000000000000000000000600052602260045260246000fd5b60006002820490506001821680611a1557607f821691505b602082108103611a2857611a276119ce565b5b50919050565b60008190508160005260206000209050919050565b60006020601f8301049050919050565b600082821b905092915050565b600060088302611a907fffffffffffffffffffffffffffffffffffffffffffffffffffffffffffffffff82611a53565b611a9a8683611a53565b95508019841693508086168417925050509392505050565b6000819050919050565b6000611ad7611ad2611acd84611495565b611ab2565b611495565b9050919050565b6000819050919050565b611af183611abc565b611b05611afd82611ade565b848454611a60565b825550505050565b600090565b611b1a611b0d565b611b25818484611ae8565b505050565b5b81811015611b4957611b3e600082611b12565b600181019050611b2b565b5050565b601f821115611b8e57611b5f81611a2e565b611b6884611a43565b81016020851015611b77578190505b611b8b611b8385611a43565b830182611b2a565b50505b505050565b600082821c905092915050565b6000611bb160001984600802611b93565b1980831691505092915050565b6000611bca8383611ba0565b9150826002028217905092915050565b611be382611416565b67ffffffffffffffff811115611bfc57611bfb6111bc565b5b611c0682546119fd565b611c11828285611b4d565b600060209050601f831160018114611c445760008415611c32578287015190505b611c3c8582611bbe565b865550611ca4565b601f198416611c5286611a2e565b60005b82811015611c7a57848901518255600182019150602085019450602081019050611c55565b86831015611c975784890151611c93601f891682611ba0565b8355505b6001600288020188555050505b505050505050565b60006040820190508181036000830152611cc68185611698565b90508181036020830152611cda8184611698565b90509392505050565b7f596f7520616c72656164792068617665206120646174612075706c6f6164656460008201527f20776974682074686973206e616d652000000000000000000000000000000000602082015250565b6000611d3f603083611687565b9150611d4a82611ce3565b604082019050919050565b60006020820190508181036000830152611d6e81611d32565b9050919050565b60006020820190508181036000830152611d8f8184611698565b905092915050565b7f596f75206469646e27742075706c6f616420616e79206461746120796574202160008201527f2120000000000000000000000000000000000000000000000000000000000000602082015250565b6000611df3602283611687565b9150611dfe82611d97565b604082019050919050565b60006020820190508181036000830152611e2281611de6565b9050919050565b6000819050919050565b600067ffffffffffffffff82169050919050565b6000611e62611e5d611e5884611e29565b611ab2565b611e33565b9050919050565b611e7281611e47565b82525050565b6000602082019050611e8d6000830184611e69565b92915050565b7f5468697320417574686572206469646e27742075706c6f616420616e7920446160008201527f746120776974682074686973206e616d652c20706c6561736520636865636b2060208201527f7468652075706c6f616465642066696c65206e616d6520616e6420617574686f60408201527f72206164647265737320616e642074727920616761696e000000000000000000606082015250565b6000611f3b607783611687565b9150611f4682611e93565b608082019050919050565b60006020820190508181036000830152611f6a81611f2e565b9050919050565b600081549050611f80816119fd565b9050919050565b818103611f9557505061206d565b611f9e82611f71565b67ffffffffffffffff811115611fb757611fb66111bc565b5b611fc182546119fd565b611fcc828285611b4d565b6000601f831160018114611ffb5760008415611fe9578287015490505b611ff38582611bbe565b865550612066565b601f19841661200987611a2e565b965061201486611a2e565b60005b8281101561203c57848901548255600182019150600185019450602081019050612017565b868310156120595784890154612055601f891682611ba0565b8355505b6001600288020188555050505b5050505050505b56fe546869732044617461206d61746368657320746865206f6e652073746f72656420627920617574686f722c206974206861736e2774206265656e206d6f6469666965642066726f6d206c61737420757064617465202054686973204461746120646f65736e2774206d617463682c20697420686173206265656e206d6f6469666965642c206974277320646966666572656e742066726f6d206c6173742076657273696f6e2073746f7265642021212020a2646970667358221220ae9193da289a61938f43d1fb982f249e541dcde4c48a33dea601c9e0bad5f9a064736f6c63430008180033","opcodes":"PUSH1 0x80 PUSH1 0x40 MSTORE CALLVALUE DUP1 ISZERO PUSH2 0x10 JUMPI PUSH1 0x0 DUP1 REVERT JUMPDEST POP PUSH2 0x2156 DUP1 PUSH2 0x20 PUSH1 0x0 CODECOPY PUSH1 0x0 RETURN INVALID PUSH1 0x80 PUSH1 0x40 MSTORE CALLVALUE DUP1 ISZERO PUSH2 0x10 JUMPI PUSH1 0x0 DUP1 REVERT JUMPDEST POP PUSH1 0x4 CALLDATASIZE LT PUSH2 0x88 JUMPI PUSH1 0x0 CALLDATALOAD PUSH1 0xE0 SHR DUP1 PUSH4 0xAA15EFC8 GT PUSH2 0x5B JUMPI DUP1 PUSH4 0xAA15EFC8 EQ PUSH2 0xED JUMPI DUP1 PUSH4 0xC4D66DE8 EQ PUSH2 0x10B JUMPI DUP1 PUSH4 0xCE71167A EQ PUSH2 0x127 JUMPI DUP1 PUSH4 0xF2FDE38B EQ PUSH2 0x158 JUMPI PUSH2 0x88 JUMP JUMPDEST DUP1 PUSH4 0x55995DBA EQ PUSH2 0x8D JUMPI DUP1 PUSH4 0x715018A6 EQ PUSH2 0xA9 JUMPI DUP1 PUSH4 0x75700B5E EQ PUSH2 0xB3 JUMPI DUP1 PUSH4 0x8DA5CB5B EQ PUSH2 0xCF JUMPI JUMPDEST PUSH1 0x0 DUP1 REVERT JUMPDEST PUSH2 0xA7 PUSH1 0x4 DUP1 CALLDATASIZE SUB DUP2 ADD SWAP1 PUSH2 0xA2 SWAP2 SWAP1 PUSH2 0x12E7 JUMP JUMPDEST PUSH2 0x174 JUMP JUMPDEST STOP JUMPDEST PUSH2 0xB1 PUSH2 0x385 JUMP JUMPDEST STOP JUMPDEST PUSH2 0xCD PUSH1 0x4 DUP1 CALLDATASIZE SUB DUP2 ADD SWAP1 PUSH2 0xC8 SWAP2 SWAP1 PUSH2 0x12E7 JUMP JUMPDEST PUSH2 0x399 JUMP JUMPDEST STOP JUMPDEST PUSH2 0xD7 PUSH2 0x653 JUMP JUMPDEST PUSH1 0x40 MLOAD PUSH2 0xE4 SWAP2 SWAP1 PUSH2 0x13CF JUMP JUMPDEST PUSH1 0x40 MLOAD DUP1 SWAP2 SUB SWAP1 RETURN JUMPDEST PUSH2 0xF5 PUSH2 0x68B JUMP JUMPDEST PUSH1 0x40 MLOAD PUSH2 0x102 SWAP2 SWAP1 PUSH2 0x1581 JUMP JUMPDEST PUSH1 0x40 MLOAD DUP1 SWAP2 SUB SWAP1 RETURN JUMPDEST PUSH2 0x125 PUSH1 0x4 DUP1 CALLDATASIZE SUB DUP2 ADD SWAP1 PUSH2 0x120 SWAP2 SWAP1 PUSH2 0x15CF JUMP JUMPDEST PUSH2 0x848 JUMP JUMPDEST STOP JUMPDEST PUSH2 0x141 PUSH1 0x4 DUP1 CALLDATASIZE SUB DUP2 ADD SWAP1 PUSH2 0x13C SWAP2 SWAP1 PUSH2 0x15FC JUMP JUMPDEST PUSH2 0x9D7 JUMP JUMPDEST PUSH1 0x40 MLOAD PUSH2 0x14F SWAP3 SWAP2 SWAP1 PUSH2 0x18B2 JUMP JUMPDEST PUSH1 0x40 MLOAD DUP1 SWAP2 SUB SWAP1 RETURN JUMPDEST PUSH2 0x172 PUSH1 0x4 DUP1 CALLDATASIZE SUB DUP2 ADD SWAP1 PUSH2 0x16D SWAP2 SWAP1 PUSH2 0x15CF JUMP JUMPDEST PUSH2 0xCED JUMP JUMPDEST STOP JUMPDEST PUSH1 0x0 DUP1 SHL PUSH1 0x4 PUSH1 0x0 CALLER PUSH20 0xFFFFFFFFFFFFFFFFFFFFFFFFFFFFFFFFFFFFFFFF AND PUSH20 0xFFFFFFFFFFFFFFFFFFFFFFFFFFFFFFFFFFFFFFFF AND DUP2 MSTORE PUSH1 0x20 ADD SWAP1 DUP2 MSTORE PUSH1 0x20 ADD PUSH1 0x0 KECCAK256 DUP5 PUSH1 0x40 MLOAD PUSH2 0x1C5 SWAP2 SWAP1 PUSH2 0x1925 JUMP JUMPDEST SWAP1 DUP2 MSTORE PUSH1 0x20 ADD PUSH1 0x40 MLOAD DUP1 SWAP2 SUB SWAP1 KECCAK256 PUSH1 0x0 ADD SLOAD SUB PUSH2 0x217 JUMPI PUSH1 0x40 MLOAD PUSH32 0x8C379A000000000000000000000000000000000000000000000000000000000 DUP2 MSTORE PUSH1 0x4 ADD PUSH2 0x20E SWAP1 PUSH2 0x19AE JUMP JUMPDEST PUSH1 0x40 MLOAD DUP1 SWAP2 SUB SWAP1 REVERT JUMPDEST PUSH1 0x0 PUSH2 0x222 DUP4 PUSH2 0xD73 JUMP JUMPDEST SWAP1 POP PUSH1 0x0 TIMESTAMP SWAP1 POP DUP2 PUSH1 0x0 DUP1 ADD DUP2 SWAP1 SSTORE POP PUSH1 0x0 PUSH1 0x1 ADD DUP4 SWAP1 DUP1 PUSH1 0x1 DUP2 SLOAD ADD DUP1 DUP3 SSTORE DUP1 SWAP2 POP POP PUSH1 0x1 SWAP1 SUB SWAP1 PUSH1 0x0 MSTORE PUSH1 0x20 PUSH1 0x0 KECCAK256 ADD PUSH1 0x0 SWAP1 SWAP2 SWAP1 SWAP2 SWAP1 SWAP2 POP SWAP1 DUP2 PUSH2 0x269 SWAP2 SWAP1 PUSH2 0x1BDA JUMP JUMPDEST POP PUSH1 0x0 PUSH1 0x2 ADD DUP2 SWAP1 DUP1 PUSH1 0x1 DUP2 SLOAD ADD DUP1 DUP3 SSTORE DUP1 SWAP2 POP POP PUSH1 0x1 SWAP1 SUB SWAP1 PUSH1 0x0 MSTORE PUSH1 0x20 PUSH1 0x0 KECCAK256 ADD PUSH1 0x0 SWAP1 SWAP2 SWAP1 SWAP2 SWAP1 SWAP2 POP SSTORE PUSH1 0x0 PUSH1 0x4 PUSH1 0x0 CALLER PUSH20 0xFFFFFFFFFFFFFFFFFFFFFFFFFFFFFFFFFFFFFFFF AND PUSH20 0xFFFFFFFFFFFFFFFFFFFFFFFFFFFFFFFFFFFFFFFF AND DUP2 MSTORE PUSH1 0x20 ADD SWAP1 DUP2 MSTORE PUSH1 0x20 ADD PUSH1 0x0 KECCAK256 DUP7 PUSH1 0x40 MLOAD PUSH2 0x2E5 SWAP2 SWAP1 PUSH2 0x1925 JUMP JUMPDEST SWAP1 DUP2 MSTORE PUSH1 0x20 ADD PUSH1 0x40 MLOAD DUP1 SWAP2 SUB SWAP1 KECCAK256 PUSH1 0x0 DUP3 ADD SLOAD DUP2 PUSH1 0x0 ADD SSTORE PUSH1 0x1 DUP3 ADD DUP2 PUSH1 0x1 ADD SWAP1 DUP1 SLOAD PUSH2 0x313 SWAP3 SWAP2 SWAP1 PUSH2 0x1039 JUMP JUMPDEST POP PUSH1 0x2 DUP3 ADD DUP2 PUSH1 0x2 ADD SWAP1 DUP1 SLOAD PUSH2 0x32A SWAP3 SWAP2 SWAP1 PUSH2 0x1096 JUMP JUMPDEST POP SWAP1 POP POP CALLER PUSH20 0xFFFFFFFFFFFFFFFFFFFFFFFFFFFFFFFFFFFFFFFF AND PUSH32 0x33A71A1F34BA6E443575DFE592A9E028CDB57B5C58DB3BE38FA1C78A05770EC6 DUP7 DUP6 PUSH1 0x40 MLOAD PUSH2 0x376 SWAP3 SWAP2 SWAP1 PUSH2 0x1CAC JUMP JUMPDEST PUSH1 0x40 MLOAD DUP1 SWAP2 SUB SWAP1 LOG2 POP POP POP POP POP JUMP JUMPDEST PUSH2 0x38D PUSH2 0xD89 JUMP JUMPDEST PUSH2 0x397 PUSH1 0x0 PUSH2 0xE10 JUMP JUMPDEST JUMP JUMPDEST PUSH1 0x0 CALLER SWAP1 POP PUSH1 0x0 DUP1 SHL PUSH1 0x4 PUSH1 0x0 DUP4 PUSH20 0xFFFFFFFFFFFFFFFFFFFFFFFFFFFFFFFFFFFFFFFF AND PUSH20 0xFFFFFFFFFFFFFFFFFFFFFFFFFFFFFFFFFFFFFFFF AND DUP2 MSTORE PUSH1 0x20 ADD SWAP1 DUP2 MSTORE PUSH1 0x20 ADD PUSH1 0x0 KECCAK256 DUP6 PUSH1 0x40 MLOAD PUSH2 0x3EF SWAP2 SWAP1 PUSH2 0x1925 JUMP JUMPDEST SWAP1 DUP2 MSTORE PUSH1 0x20 ADD PUSH1 0x40 MLOAD DUP1 SWAP2 SUB SWAP1 KECCAK256 PUSH1 0x0 ADD SLOAD EQ PUSH2 0x441 JUMPI PUSH1 0x40 MLOAD PUSH32 0x8C379A000000000000000000000000000000000000000000000000000000000 DUP2 MSTORE PUSH1 0x4 ADD PUSH2 0x438 SWAP1 PUSH2 0x1D55 JUMP JUMPDEST PUSH1 0x40 MLOAD DUP1 SWAP2 SUB SWAP1 REVERT JUMPDEST PUSH1 0x0 PUSH2 0x44C DUP5 PUSH2 0xD73 JUMP JUMPDEST SWAP1 POP PUSH1 0x0 TIMESTAMP SWAP1 POP PUSH1 0x0 PUSH1 0x40 MLOAD DUP1 PUSH1 0x40 ADD PUSH1 0x40 MSTORE DUP1 DUP9 DUP2 MSTORE PUSH1 0x20 ADD DUP4 DUP2 MSTORE POP SWAP1 POP DUP3 PUSH1 0x0 DUP1 ADD DUP2 SWAP1 SSTORE POP PUSH1 0x0 PUSH1 0x1 ADD DUP6 SWAP1 DUP1 PUSH1 0x1 DUP2 SLOAD ADD DUP1 DUP3 SSTORE DUP1 SWAP2 POP POP PUSH1 0x1 SWAP1 SUB SWAP1 PUSH1 0x0 MSTORE PUSH1 0x20 PUSH1 0x0 KECCAK256 ADD PUSH1 0x0 SWAP1 SWAP2 SWAP1 SWAP2 SWAP1 SWAP2 POP SWAP1 DUP2 PUSH2 0x4AC SWAP2 SWAP1 PUSH2 0x1BDA JUMP JUMPDEST POP PUSH1 0x0 PUSH1 0x2 ADD DUP3 SWAP1 DUP1 PUSH1 0x1 DUP2 SLOAD ADD DUP1 DUP3 SSTORE DUP1 SWAP2 POP POP PUSH1 0x1 SWAP1 SUB SWAP1 PUSH1 0x0 MSTORE PUSH1 0x20 PUSH1 0x0 KECCAK256 ADD PUSH1 0x0 SWAP1 SWAP2 SWAP1 SWAP2 SWAP1 SWAP2 POP SSTORE PUSH1 0x0 PUSH1 0x4 PUSH1 0x0 DUP7 PUSH20 0xFFFFFFFFFFFFFFFFFFFFFFFFFFFFFFFFFFFFFFFF AND PUSH20 0xFFFFFFFFFFFFFFFFFFFFFFFFFFFFFFFFFFFFFFFF AND DUP2 MSTORE PUSH1 0x20 ADD SWAP1 DUP2 MSTORE PUSH1 0x20 ADD PUSH1 0x0 KECCAK256 DUP9 PUSH1 0x40 MLOAD PUSH2 0x528 SWAP2 SWAP1 PUSH2 0x1925 JUMP JUMPDEST SWAP1 DUP2 MSTORE PUSH1 0x20 ADD PUSH1 0x40 MLOAD DUP1 SWAP2 SUB SWAP1 KECCAK256 PUSH1 0x0 DUP3 ADD SLOAD DUP2 PUSH1 0x0 ADD SSTORE PUSH1 0x1 DUP3 ADD DUP2 PUSH1 0x1 ADD SWAP1 DUP1 SLOAD PUSH2 0x556 SWAP3 SWAP2 SWAP1 PUSH2 0x1039 JUMP JUMPDEST POP PUSH1 0x2 DUP3 ADD DUP2 PUSH1 0x2 ADD SWAP1 DUP1 SLOAD PUSH2 0x56D SWAP3 SWAP2 SWAP1 PUSH2 0x1096 JUMP JUMPDEST POP SWAP1 POP POP PUSH1 0x3 PUSH1 0x0 DUP6 PUSH20 0xFFFFFFFFFFFFFFFFFFFFFFFFFFFFFFFFFFFFFFFF AND PUSH20 0xFFFFFFFFFFFFFFFFFFFFFFFFFFFFFFFFFFFFFFFF AND DUP2 MSTORE PUSH1 0x20 ADD SWAP1 DUP2 MSTORE PUSH1 0x20 ADD PUSH1 0x0 KECCAK256 DUP2 SWAP1 DUP1 PUSH1 0x1 DUP2 SLOAD ADD DUP1 DUP3 SSTORE DUP1 SWAP2 POP POP PUSH1 0x1 SWAP1 SUB SWAP1 PUSH1 0x0 MSTORE PUSH1 0x20 PUSH1 0x0 KECCAK256 SWAP1 PUSH1 0x2 MUL ADD PUSH1 0x0 SWAP1 SWAP2 SWAP1 SWAP2 SWAP1 SWAP2 POP PUSH1 0x0 DUP3 ADD MLOAD DUP2 PUSH1 0x0 ADD SWAP1 DUP2 PUSH2 0x5EF SWAP2 SWAP1 PUSH2 0x1BDA JUMP JUMPDEST POP PUSH1 0x20 DUP3 ADD MLOAD DUP2 PUSH1 0x1 ADD SSTORE POP POP DUP4 PUSH20 0xFFFFFFFFFFFFFFFFFFFFFFFFFFFFFFFFFFFFFFFF AND PUSH32 0x259A579E559AB3F7888005DABD0F3B160733B0CCE4BD694323F9B9303494F58E DUP9 PUSH1 0x40 MLOAD PUSH2 0x642 SWAP2 SWAP1 PUSH2 0x1D75 JUMP JUMPDEST PUSH1 0x40 MLOAD DUP1 SWAP2 SUB SWAP1 LOG2 POP POP POP POP POP POP POP JUMP JUMPDEST PUSH1 0x0 DUP1 PUSH2 0x65E PUSH2 0xEE7 JUMP JUMPDEST SWAP1 POP DUP1 PUSH1 0x0 ADD PUSH1 0x0 SWAP1 SLOAD SWAP1 PUSH2 0x100 EXP SWAP1 DIV PUSH20 0xFFFFFFFFFFFFFFFFFFFFFFFFFFFFFFFFFFFFFFFF AND SWAP2 POP POP SWAP1 JUMP JUMPDEST PUSH1 0x60 PUSH1 0x0 PUSH1 0x3 PUSH1 0x0 CALLER PUSH20 0xFFFFFFFFFFFFFFFFFFFFFFFFFFFFFFFFFFFFFFFF AND PUSH20 0xFFFFFFFFFFFFFFFFFFFFFFFFFFFFFFFFFFFFFFFF AND DUP2 MSTORE PUSH1 0x20 ADD SWAP1 DUP2 MSTORE PUSH1 0x20 ADD PUSH1 0x0 KECCAK256 DUP1 SLOAD SWAP1 POP SUB PUSH2 0x712 JUMPI PUSH1 0x40 MLOAD PUSH32 0x8C379A000000000000000000000000000000000000000000000000000000000 DUP2 MSTORE PUSH1 0x4 ADD PUSH2 0x709 SWAP1 PUSH2 0x1E09 JUMP JUMPDEST PUSH1 0x40 MLOAD DUP1 SWAP2 SUB SWAP1 REVERT JUMPDEST PUSH1 0x3 PUSH1 0x0 CALLER PUSH20 0xFFFFFFFFFFFFFFFFFFFFFFFFFFFFFFFFFFFFFFFF AND PUSH20 0xFFFFFFFFFFFFFFFFFFFFFFFFFFFFFFFFFFFFFFFF AND DUP2 MSTORE PUSH1 0x20 ADD SWAP1 DUP2 MSTORE PUSH1 0x20 ADD PUSH1 0x0 KECCAK256 DUP1 SLOAD DUP1 PUSH1 0x20 MUL PUSH1 0x20 ADD PUSH1 0x40 MLOAD SWAP1 DUP2 ADD PUSH1 0x40 MSTORE DUP1 SWAP3 SWAP2 SWAP1 DUP2 DUP2 MSTORE PUSH1 0x20 ADD PUSH1 0x0 SWAP1 JUMPDEST DUP3 DUP3 LT ISZERO PUSH2 0x83F JUMPI DUP4 DUP3 SWAP1 PUSH1 0x0 MSTORE PUSH1 0x20 PUSH1 0x0 KECCAK256 SWAP1 PUSH1 0x2 MUL ADD PUSH1 0x40 MLOAD DUP1 PUSH1 0x40 ADD PUSH1 0x40 MSTORE SWAP1 DUP2 PUSH1 0x0 DUP3 ADD DUP1 SLOAD PUSH2 0x7A4 SWAP1 PUSH2 0x19FD JUMP JUMPDEST DUP1 PUSH1 0x1F ADD PUSH1 0x20 DUP1 SWAP2 DIV MUL PUSH1 0x20 ADD PUSH1 0x40 MLOAD SWAP1 DUP2 ADD PUSH1 0x40 MSTORE DUP1 SWAP3 SWAP2 SWAP1 DUP2 DUP2 MSTORE PUSH1 0x20 ADD DUP3 DUP1 SLOAD PUSH2 0x7D0 SWAP1 PUSH2 0x19FD JUMP JUMPDEST DUP1 ISZERO PUSH2 0x81D JUMPI DUP1 PUSH1 0x1F LT PUSH2 0x7F2 JUMPI PUSH2 0x100 DUP1 DUP4 SLOAD DIV MUL DUP4 MSTORE SWAP2 PUSH1 0x20 ADD SWAP2 PUSH2 0x81D JUMP JUMPDEST DUP3 ADD SWAP2 SWAP1 PUSH1 0x0 MSTORE PUSH1 0x20 PUSH1 0x0 KECCAK256 SWAP1 JUMPDEST DUP2 SLOAD DUP2 MSTORE SWAP1 PUSH1 0x1 ADD SWAP1 PUSH1 0x20 ADD DUP1 DUP4 GT PUSH2 0x800 JUMPI DUP3 SWAP1 SUB PUSH1 0x1F AND DUP3 ADD SWAP2 JUMPDEST POP POP POP POP POP DUP2 MSTORE PUSH1 0x20 ADD PUSH1 0x1 DUP3 ADD SLOAD DUP2 MSTORE POP POP DUP2 MSTORE PUSH1 0x20 ADD SWAP1 PUSH1 0x1 ADD SWAP1 PUSH2 0x771 JUMP JUMPDEST POP POP POP POP SWAP1 POP SWAP1 JUMP JUMPDEST PUSH1 0x0 PUSH2 0x852 PUSH2 0xF0F JUMP JUMPDEST SWAP1 POP PUSH1 0x0 DUP2 PUSH1 0x0 ADD PUSH1 0x8 SWAP1 SLOAD SWAP1 PUSH2 0x100 EXP SWAP1 DIV PUSH1 0xFF AND ISZERO SWAP1 POP PUSH1 0x0 DUP3 PUSH1 0x0 ADD PUSH1 0x0 SWAP1 SLOAD SWAP1 PUSH2 0x100 EXP SWAP1 DIV PUSH8 0xFFFFFFFFFFFFFFFF AND SWAP1 POP PUSH1 0x0 DUP1 DUP3 PUSH8 0xFFFFFFFFFFFFFFFF AND EQ DUP1 ISZERO PUSH2 0x8A0 JUMPI POP DUP3 JUMPDEST SWAP1 POP PUSH1 0x0 PUSH1 0x1 DUP4 PUSH8 0xFFFFFFFFFFFFFFFF AND EQ DUP1 ISZERO PUSH2 0x8D5 JUMPI POP PUSH1 0x0 ADDRESS PUSH20 0xFFFFFFFFFFFFFFFFFFFFFFFFFFFFFFFFFFFFFFFF AND EXTCODESIZE EQ JUMPDEST SWAP1 POP DUP2 ISZERO DUP1 ISZERO PUSH2 0x8E3 JUMPI POP DUP1 ISZERO JUMPDEST ISZERO PUSH2 0x91A JUMPI PUSH1 0x40 MLOAD PUSH32 0xF92EE8A900000000000000000000000000000000000000000000000000000000 DUP2 MSTORE PUSH1 0x4 ADD PUSH1 0x40 MLOAD DUP1 SWAP2 SUB SWAP1 REVERT JUMPDEST PUSH1 0x1 DUP6 PUSH1 0x0 ADD PUSH1 0x0 PUSH2 0x100 EXP DUP2 SLOAD DUP2 PUSH8 0xFFFFFFFFFFFFFFFF MUL NOT AND SWAP1 DUP4 PUSH8 0xFFFFFFFFFFFFFFFF AND MUL OR SWAP1 SSTORE POP DUP4 ISZERO PUSH2 0x96A JUMPI PUSH1 0x1 DUP6 PUSH1 0x0 ADD PUSH1 0x8 PUSH2 0x100 EXP DUP2 SLOAD DUP2 PUSH1 0xFF MUL NOT AND SWAP1 DUP4 ISZERO ISZERO MUL OR SWAP1 SSTORE POP JUMPDEST PUSH2 0x973 DUP7 PUSH2 0xF37 JUMP JUMPDEST DUP4 ISZERO PUSH2 0x9CF JUMPI PUSH1 0x0 DUP6 PUSH1 0x0 ADD PUSH1 0x8 PUSH2 0x100 EXP DUP2 SLOAD DUP2 PUSH1 0xFF MUL NOT AND SWAP1 DUP4 ISZERO ISZERO MUL OR SWAP1 SSTORE POP PUSH32 0xC7F505B2F371AE2175EE4913F4499E1F2633A7B5936321EED1CDAEB6115181D2 PUSH1 0x1 PUSH1 0x40 MLOAD PUSH2 0x9C6 SWAP2 SWAP1 PUSH2 0x1E78 JUMP JUMPDEST PUSH1 0x40 MLOAD DUP1 SWAP2 SUB SWAP1 LOG1 JUMPDEST POP POP POP POP POP POP JUMP JUMPDEST PUSH1 0x60 PUSH2 0x9E1 PUSH2 0x10E8 JUMP JUMPDEST PUSH1 0x60 PUSH1 0x0 DUP1 SHL PUSH1 0x4 PUSH1 0x0 DUP9 PUSH20 0xFFFFFFFFFFFFFFFFFFFFFFFFFFFFFFFFFFFFFFFF AND PUSH20 0xFFFFFFFFFFFFFFFFFFFFFFFFFFFFFFFFFFFFFFFF AND DUP2 MSTORE PUSH1 0x20 ADD SWAP1 DUP2 MSTORE PUSH1 0x20 ADD PUSH1 0x0 KECCAK256 DUP7 PUSH1 0x40 MLOAD PUSH2 0xA34 SWAP2 SWAP1 PUSH2 0x1925 JUMP JUMPDEST SWAP1 DUP2 MSTORE PUSH1 0x20 ADD PUSH1 0x40 MLOAD DUP1 SWAP2 SUB SWAP1 KECCAK256 PUSH1 0x0 ADD SLOAD SUB PUSH2 0xA86 JUMPI PUSH1 0x40 MLOAD PUSH32 0x8C379A000000000000000000000000000000000000000000000000000000000 DUP2 MSTORE PUSH1 0x4 ADD PUSH2 0xA7D SWAP1 PUSH2 0x1F51 JUMP JUMPDEST PUSH1 0x40 MLOAD DUP1 SWAP2 SUB SWAP1 REVERT JUMPDEST PUSH1 0x0 PUSH1 0x4 PUSH1 0x0 DUP9 PUSH20 0xFFFFFFFFFFFFFFFFFFFFFFFFFFFFFFFFFFFFFFFF AND PUSH20 0xFFFFFFFFFFFFFFFFFFFFFFFFFFFFFFFFFFFFFFFF AND DUP2 MSTORE PUSH1 0x20 ADD SWAP1 DUP2 MSTORE PUSH1 0x20 ADD PUSH1 0x0 KECCAK256 DUP7 PUSH1 0x40 MLOAD PUSH2 0xAD5 SWAP2 SWAP1 PUSH2 0x1925 JUMP JUMPDEST SWAP1 DUP2 MSTORE PUSH1 0x20 ADD PUSH1 0x40 MLOAD DUP1 SWAP2 SUB SWAP1 KECCAK256 PUSH1 0x0 ADD SLOAD SWAP1 POP PUSH1 0x0 PUSH2 0xAF4 DUP7 PUSH2 0xD73 JUMP JUMPDEST SWAP1 POP DUP1 DUP3 SUB PUSH2 0xB1D JUMPI PUSH1 0x40 MLOAD DUP1 PUSH1 0x80 ADD PUSH1 0x40 MSTORE DUP1 PUSH1 0x56 DUP2 MSTORE PUSH1 0x20 ADD PUSH2 0x2070 PUSH1 0x56 SWAP2 CODECOPY SWAP3 POP PUSH2 0xB39 JUMP JUMPDEST PUSH1 0x40 MLOAD DUP1 PUSH1 0x80 ADD PUSH1 0x40 MSTORE DUP1 PUSH1 0x5B DUP2 MSTORE PUSH1 0x20 ADD PUSH2 0x20C6 PUSH1 0x5B SWAP2 CODECOPY SWAP3 POP JUMPDEST DUP3 PUSH1 0x4 PUSH1 0x0 DUP11 PUSH20 0xFFFFFFFFFFFFFFFFFFFFFFFFFFFFFFFFFFFFFFFF AND PUSH20 0xFFFFFFFFFFFFFFFFFFFFFFFFFFFFFFFFFFFFFFFF AND DUP2 MSTORE PUSH1 0x20 ADD SWAP1 DUP2 MSTORE PUSH1 0x20 ADD PUSH1 0x0 KECCAK256 DUP9 PUSH1 0x40 MLOAD PUSH2 0xB87 SWAP2 SWAP1 PUSH2 0x1925 JUMP JUMPDEST SWAP1 DUP2 MSTORE PUSH1 0x20 ADD PUSH1 0x40 MLOAD DUP1 SWAP2 SUB SWAP1 KECCAK256 DUP1 PUSH1 0x40 MLOAD DUP1 PUSH1 0x60 ADD PUSH1 0x40 MSTORE SWAP1 DUP2 PUSH1 0x0 DUP3 ADD SLOAD DUP2 MSTORE PUSH1 0x20 ADD PUSH1 0x1 DUP3 ADD DUP1 SLOAD DUP1 PUSH1 0x20 MUL PUSH1 0x20 ADD PUSH1 0x40 MLOAD SWAP1 DUP2 ADD PUSH1 0x40 MSTORE DUP1 SWAP3 SWAP2 SWAP1 DUP2 DUP2 MSTORE PUSH1 0x20 ADD PUSH1 0x0 SWAP1 JUMPDEST DUP3 DUP3 LT ISZERO PUSH2 0xC7C JUMPI DUP4 DUP3 SWAP1 PUSH1 0x0 MSTORE PUSH1 0x20 PUSH1 0x0 KECCAK256 ADD DUP1 SLOAD PUSH2 0xBEF SWAP1 PUSH2 0x19FD JUMP JUMPDEST DUP1 PUSH1 0x1F ADD PUSH1 0x20 DUP1 SWAP2 DIV MUL PUSH1 0x20 ADD PUSH1 0x40 MLOAD SWAP1 DUP2 ADD PUSH1 0x40 MSTORE DUP1 SWAP3 SWAP2 SWAP1 DUP2 DUP2 MSTORE PUSH1 0x20 ADD DUP3 DUP1 SLOAD PUSH2 0xC1B SWAP1 PUSH2 0x19FD JUMP JUMPDEST DUP1 ISZERO PUSH2 0xC68 JUMPI DUP1 PUSH1 0x1F LT PUSH2 0xC3D JUMPI PUSH2 0x100 DUP1 DUP4 SLOAD DIV MUL DUP4 MSTORE SWAP2 PUSH1 0x20 ADD SWAP2 PUSH2 0xC68 JUMP JUMPDEST DUP3 ADD SWAP2 SWAP1 PUSH1 0x0 MSTORE PUSH1 0x20 PUSH1 0x0 KECCAK256 SWAP1 JUMPDEST DUP2 SLOAD DUP2 MSTORE SWAP1 PUSH1 0x1 ADD SWAP1 PUSH1 0x20 ADD DUP1 DUP4 GT PUSH2 0xC4B JUMPI DUP3 SWAP1 SUB PUSH1 0x1F AND DUP3 ADD SWAP2 JUMPDEST POP POP POP POP POP DUP2 MSTORE PUSH1 0x20 ADD SWAP1 PUSH1 0x1 ADD SWAP1 PUSH2 0xBD0 JUMP JUMPDEST POP POP POP POP DUP2 MSTORE PUSH1 0x20 ADD PUSH1 0x2 DUP3 ADD DUP1 SLOAD DUP1 PUSH1 0x20 MUL PUSH1 0x20 ADD PUSH1 0x40 MLOAD SWAP1 DUP2 ADD PUSH1 0x40 MSTORE DUP1 SWAP3 SWAP2 SWAP1 DUP2 DUP2 MSTORE PUSH1 0x20 ADD DUP3 DUP1 SLOAD DUP1 ISZERO PUSH2 0xCD3 JUMPI PUSH1 0x20 MUL DUP3 ADD SWAP2 SWAP1 PUSH1 0x0 MSTORE PUSH1 0x20 PUSH1 0x0 KECCAK256 SWAP1 JUMPDEST DUP2 SLOAD DUP2 MSTORE PUSH1 0x20 ADD SWAP1 PUSH1 0x1 ADD SWAP1 DUP1 DUP4 GT PUSH2 0xCBF JUMPI JUMPDEST POP POP POP POP POP DUP2 MSTORE POP POP SWAP1 POP SWAP5 POP SWAP5 POP POP POP POP SWAP4 POP SWAP4 SWAP2 POP POP JUMP JUMPDEST PUSH2 0xCF5 PUSH2 0xD89 JUMP JUMPDEST PUSH1 0x0 PUSH20 0xFFFFFFFFFFFFFFFFFFFFFFFFFFFFFFFFFFFFFFFF AND DUP2 PUSH20 0xFFFFFFFFFFFFFFFFFFFFFFFFFFFFFFFFFFFFFFFF AND SUB PUSH2 0xD67 JUMPI PUSH1 0x0 PUSH1 0x40 MLOAD PUSH32 0x1E4FBDF700000000000000000000000000000000000000000000000000000000 DUP2 MSTORE PUSH1 0x4 ADD PUSH2 0xD5E SWAP2 SWAP1 PUSH2 0x13CF JUMP JUMPDEST PUSH1 0x40 MLOAD DUP1 SWAP2 SUB SWAP1 REVERT JUMPDEST PUSH2 0xD70 DUP2 PUSH2 0xE10 JUMP JUMPDEST POP JUMP JUMPDEST PUSH1 0x0 DUP1 DUP3 DUP1 MLOAD SWAP1 PUSH1 0x20 ADD KECCAK256 SWAP1 POP DUP1 SWAP2 POP POP SWAP2 SWAP1 POP JUMP JUMPDEST PUSH2 0xD91 PUSH2 0xF4B JUMP JUMPDEST PUSH20 0xFFFFFFFFFFFFFFFFFFFFFFFFFFFFFFFFFFFFFFFF AND PUSH2 0xDAF PUSH2 0x653 JUMP JUMPDEST PUSH20 0xFFFFFFFFFFFFFFFFFFFFFFFFFFFFFFFFFFFFFFFF AND EQ PUSH2 0xE0E JUMPI PUSH2 0xDD2 PUSH2 0xF4B JUMP JUMPDEST PUSH1 0x40 MLOAD PUSH32 0x118CDAA700000000000000000000000000000000000000000000000000000000 DUP2 MSTORE PUSH1 0x4 ADD PUSH2 0xE05 SWAP2 SWAP1 PUSH2 0x13CF JUMP JUMPDEST PUSH1 0x40 MLOAD DUP1 SWAP2 SUB SWAP1 REVERT JUMPDEST JUMP JUMPDEST PUSH1 0x0 PUSH2 0xE1A PUSH2 0xEE7 JUMP JUMPDEST SWAP1 POP PUSH1 0x0 DUP2 PUSH1 0x0 ADD PUSH1 0x0 SWAP1 SLOAD SWAP1 PUSH2 0x100 EXP SWAP1 DIV PUSH20 0xFFFFFFFFFFFFFFFFFFFFFFFFFFFFFFFFFFFFFFFF AND SWAP1 POP DUP3 DUP3 PUSH1 0x0 ADD PUSH1 0x0 PUSH2 0x100 EXP DUP2 SLOAD DUP2 PUSH20 0xFFFFFFFFFFFFFFFFFFFFFFFFFFFFFFFFFFFFFFFF MUL NOT AND SWAP1 DUP4 PUSH20 0xFFFFFFFFFFFFFFFFFFFFFFFFFFFFFFFFFFFFFFFF AND MUL OR SWAP1 SSTORE POP DUP3 PUSH20 0xFFFFFFFFFFFFFFFFFFFFFFFFFFFFFFFFFFFFFFFF AND DUP2 PUSH20 0xFFFFFFFFFFFFFFFFFFFFFFFFFFFFFFFFFFFFFFFF AND PUSH32 0x8BE0079C531659141344CD1FD0A4F28419497F9722A3DAAFE3B4186F6B6457E0 PUSH1 0x40 MLOAD PUSH1 0x40 MLOAD DUP1 SWAP2 SUB SWAP1 LOG3 POP POP POP JUMP JUMPDEST PUSH1 0x0 PUSH32 0x9016D09D72D40FDAE2FD8CEAC6B6234C7706214FD39C1CD1E609A0528C199300 SWAP1 POP SWAP1 JUMP JUMPDEST PUSH1 0x0 PUSH32 0xF0C57E16840DF040F15088DC2F81FE391C3923BEC73E23A9662EFC9C229C6A00 SWAP1 POP SWAP1 JUMP JUMPDEST PUSH2 0xF3F PUSH2 0xF53 JUMP JUMPDEST PUSH2 0xF48 DUP2 PUSH2 0xF93 JUMP JUMPDEST POP JUMP JUMPDEST PUSH1 0x0 CALLER SWAP1 POP SWAP1 JUMP JUMPDEST PUSH2 0xF5B PUSH2 0x1019 JUMP JUMPDEST PUSH2 0xF91 JUMPI PUSH1 0x40 MLOAD PUSH32 0xD7E6BCF800000000000000000000000000000000000000000000000000000000 DUP2 MSTORE PUSH1 0x4 ADD PUSH1 0x40 MLOAD DUP1 SWAP2 SUB SWAP1 REVERT JUMPDEST JUMP JUMPDEST PUSH2 0xF9B PUSH2 0xF53 JUMP JUMPDEST PUSH1 0x0 PUSH20 0xFFFFFFFFFFFFFFFFFFFFFFFFFFFFFFFFFFFFFFFF AND DUP2 PUSH20 0xFFFFFFFFFFFFFFFFFFFFFFFFFFFFFFFFFFFFFFFF AND SUB PUSH2 0x100D JUMPI PUSH1 0x0 PUSH1 0x40 MLOAD PUSH32 0x1E4FBDF700000000000000000000000000000000000000000000000000000000 DUP2 MSTORE PUSH1 0x4 ADD PUSH2 0x1004 SWAP2 SWAP1 PUSH2 0x13CF JUMP JUMPDEST PUSH1 0x40 MLOAD DUP1 SWAP2 SUB SWAP1 REVERT JUMPDEST PUSH2 0x1016 DUP2 PUSH2 0xE10 JUMP JUMPDEST POP JUMP JUMPDEST PUSH1 0x0 PUSH2 0x1023 PUSH2 0xF0F JUMP JUMPDEST PUSH1 0x0 ADD PUSH1 0x8 SWAP1 SLOAD SWAP1 PUSH2 0x100 EXP SWAP1 DIV PUSH1 0xFF AND SWAP1 POP SWAP1 JUMP JUMPDEST DUP3 DUP1 SLOAD DUP3 DUP3 SSTORE SWAP1 PUSH1 0x0 MSTORE PUSH1 0x20 PUSH1 0x0 KECCAK256 SWAP1 DUP2 ADD SWAP3 DUP3 ISZERO PUSH2 0x1085 JUMPI PUSH1 0x0 MSTORE PUSH1 0x20 PUSH1 0x0 KECCAK256 SWAP2 DUP3 ADD JUMPDEST DUP3 DUP2 GT ISZERO PUSH2 0x1084 JUMPI DUP3 DUP3 SWAP1 DUP2 PUSH2 0x1074 SWAP2 SWAP1 PUSH2 0x1F87 JUMP JUMPDEST POP SWAP2 PUSH1 0x1 ADD SWAP2 SWAP1 PUSH1 0x1 ADD SWAP1 PUSH2 0x105E JUMP JUMPDEST JUMPDEST POP SWAP1 POP PUSH2 0x1092 SWAP2 SWAP1 PUSH2 0x110C JUMP JUMPDEST POP SWAP1 JUMP JUMPDEST DUP3 DUP1 SLOAD DUP3 DUP3 SSTORE SWAP1 PUSH1 0x0 MSTORE PUSH1 0x20 PUSH1 0x0 KECCAK256 SWAP1 DUP2 ADD SWAP3 DUP3 ISZERO PUSH2 0x10D7 JUMPI PUSH1 0x0 MSTORE PUSH1 0x20 PUSH1 0x0 KECCAK256 SWAP2 DUP3 ADD JUMPDEST DUP3 DUP2 GT ISZERO PUSH2 0x10D6 JUMPI DUP3 SLOAD DUP3 SSTORE SWAP2 PUSH1 0x1 ADD SWAP2 SWAP1 PUSH1 0x1 ADD SWAP1 PUSH2 0x10BB JUMP JUMPDEST JUMPDEST POP SWAP1 POP PUSH2 0x10E4 SWAP2 SWAP1 PUSH2 0x1130 JUMP JUMPDEST POP SWAP1 JUMP JUMPDEST PUSH1 0x40 MLOAD DUP1 PUSH1 0x60 ADD PUSH1 0x40 MSTORE DUP1 PUSH1 0x0 DUP1 NOT AND DUP2 MSTORE PUSH1 0x20 ADD PUSH1 0x60 DUP2 MSTORE PUSH1 0x20 ADD PUSH1 0x60 DUP2 MSTORE POP SWAP1 JUMP JUMPDEST JUMPDEST DUP1 DUP3 GT ISZERO PUSH2 0x112C JUMPI PUSH1 0x0 DUP2 DUP2 PUSH2 0x1123 SWAP2 SWAP1 PUSH2 0x114D JUMP JUMPDEST POP PUSH1 0x1 ADD PUSH2 0x110D JUMP JUMPDEST POP SWAP1 JUMP JUMPDEST JUMPDEST DUP1 DUP3 GT ISZERO PUSH2 0x1149 JUMPI PUSH1 0x0 DUP2 PUSH1 0x0 SWAP1 SSTORE POP PUSH1 0x1 ADD PUSH2 0x1131 JUMP JUMPDEST POP SWAP1 JUMP JUMPDEST POP DUP1 SLOAD PUSH2 0x1159 SWAP1 PUSH2 0x19FD JUMP JUMPDEST PUSH1 0x0 DUP3 SSTORE DUP1 PUSH1 0x1F LT PUSH2 0x116B JUMPI POP PUSH2 0x118A JUMP JUMPDEST PUSH1 0x1F ADD PUSH1 0x20 SWAP1 DIV SWAP1 PUSH1 0x0 MSTORE PUSH1 0x20 PUSH1 0x0 KECCAK256 SWAP1 DUP2 ADD SWAP1 PUSH2 0x1189 SWAP2 SWAP1 PUSH2 0x1130 JUMP JUMPDEST JUMPDEST POP JUMP JUMPDEST PUSH1 0x0 PUSH1 0x40 MLOAD SWAP1 POP SWAP1 JUMP JUMPDEST PUSH1 0x0 DUP1 REVERT JUMPDEST PUSH1 0x0 DUP1 REVERT JUMPDEST PUSH1 0x0 DUP1 REVERT JUMPDEST PUSH1 0x0 DUP1 REVERT JUMPDEST PUSH1 0x0 PUSH1 0x1F NOT PUSH1 0x1F DUP4 ADD AND SWAP1 POP SWAP2 SWAP1 POP JUMP JUMPDEST PUSH32 0x4E487B7100000000000000000000000000000000000000000000000000000000 PUSH1 0x0 MSTORE PUSH1 0x41 PUSH1 0x4 MSTORE PUSH1 0x24 PUSH1 0x0 REVERT JUMPDEST PUSH2 0x11F4 DUP3 PUSH2 0x11AB JUMP JUMPDEST DUP2 ADD DUP2 DUP2 LT PUSH8 0xFFFFFFFFFFFFFFFF DUP3 GT OR ISZERO PUSH2 0x1213 JUMPI PUSH2 0x1212 PUSH2 0x11BC JUMP JUMPDEST JUMPDEST DUP1 PUSH1 0x40 MSTORE POP POP POP JUMP JUMPDEST PUSH1 0x0 PUSH2 0x1226 PUSH2 0x118D JUMP JUMPDEST SWAP1 POP PUSH2 0x1232 DUP3 DUP3 PUSH2 0x11EB JUMP JUMPDEST SWAP2 SWAP1 POP JUMP JUMPDEST PUSH1 0x0 PUSH8 0xFFFFFFFFFFFFFFFF DUP3 GT ISZERO PUSH2 0x1252 JUMPI PUSH2 0x1251 PUSH2 0x11BC JUMP JUMPDEST JUMPDEST PUSH2 0x125B DUP3 PUSH2 0x11AB JUMP JUMPDEST SWAP1 POP PUSH1 0x20 DUP2 ADD SWAP1 POP SWAP2 SWAP1 POP JUMP JUMPDEST DUP3 DUP2 DUP4 CALLDATACOPY PUSH1 0x0 DUP4 DUP4 ADD MSTORE POP POP POP JUMP JUMPDEST PUSH1 0x0 PUSH2 0x128A PUSH2 0x1285 DUP5 PUSH2 0x1237 JUMP JUMPDEST PUSH2 0x121C JUMP JUMPDEST SWAP1 POP DUP3 DUP2 MSTORE PUSH1 0x20 DUP2 ADD DUP5 DUP5 DUP5 ADD GT ISZERO PUSH2 0x12A6 JUMPI PUSH2 0x12A5 PUSH2 0x11A6 JUMP JUMPDEST JUMPDEST PUSH2 0x12B1 DUP5 DUP3 DUP6 PUSH2 0x1268 JUMP JUMPDEST POP SWAP4 SWAP3 POP POP POP JUMP JUMPDEST PUSH1 0x0 DUP3 PUSH1 0x1F DUP4 ADD SLT PUSH2 0x12CE JUMPI PUSH2 0x12CD PUSH2 0x11A1 JUMP JUMPDEST JUMPDEST DUP2 CALLDATALOAD PUSH2 0x12DE DUP5 DUP3 PUSH1 0x20 DUP7 ADD PUSH2 0x1277 JUMP JUMPDEST SWAP2 POP POP SWAP3 SWAP2 POP POP JUMP JUMPDEST PUSH1 0x0 DUP1 PUSH1 0x0 PUSH1 0x60 DUP5 DUP7 SUB SLT ISZERO PUSH2 0x1300 JUMPI PUSH2 0x12FF PUSH2 0x1197 JUMP JUMPDEST JUMPDEST PUSH1 0x0 DUP5 ADD CALLDATALOAD PUSH8 0xFFFFFFFFFFFFFFFF DUP2 GT ISZERO PUSH2 0x131E JUMPI PUSH2 0x131D PUSH2 0x119C JUMP JUMPDEST JUMPDEST PUSH2 0x132A DUP7 DUP3 DUP8 ADD PUSH2 0x12B9 JUMP JUMPDEST SWAP4 POP POP PUSH1 0x20 DUP5 ADD CALLDATALOAD PUSH8 0xFFFFFFFFFFFFFFFF DUP2 GT ISZERO PUSH2 0x134B JUMPI PUSH2 0x134A PUSH2 0x119C JUMP JUMPDEST JUMPDEST PUSH2 0x1357 DUP7 DUP3 DUP8 ADD PUSH2 0x12B9 JUMP JUMPDEST SWAP3 POP POP PUSH1 0x40 DUP5 ADD CALLDATALOAD PUSH8 0xFFFFFFFFFFFFFFFF DUP2 GT ISZERO PUSH2 0x1378 JUMPI PUSH2 0x1377 PUSH2 0x119C JUMP JUMPDEST JUMPDEST PUSH2 0x1384 DUP7 DUP3 DUP8 ADD PUSH2 0x12B9 JUMP JUMPDEST SWAP2 POP POP SWAP3 POP SWAP3 POP SWAP3 JUMP JUMPDEST PUSH1 0x0 PUSH20 0xFFFFFFFFFFFFFFFFFFFFFFFFFFFFFFFFFFFFFFFF DUP3 AND SWAP1 POP SWAP2 SWAP1 POP JUMP JUMPDEST PUSH1 0x0 PUSH2 0x13B9 DUP3 PUSH2 0x138E JUMP JUMPDEST SWAP1 POP SWAP2 SWAP1 POP JUMP JUMPDEST PUSH2 0x13C9 DUP2 PUSH2 0x13AE JUMP JUMPDEST DUP3 MSTORE POP POP JUMP JUMPDEST PUSH1 0x0 PUSH1 0x20 DUP3 ADD SWAP1 POP PUSH2 0x13E4 PUSH1 0x0 DUP4 ADD DUP5 PUSH2 0x13C0 JUMP JUMPDEST SWAP3 SWAP2 POP POP JUMP JUMPDEST PUSH1 0x0 DUP2 MLOAD SWAP1 POP SWAP2 SWAP1 POP JUMP JUMPDEST PUSH1 0x0 DUP3 DUP3 MSTORE PUSH1 0x20 DUP3 ADD SWAP1 POP SWAP3 SWAP2 POP POP JUMP JUMPDEST PUSH1 0x0 DUP2 SWAP1 POP PUSH1 0x20 DUP3 ADD SWAP1 POP SWAP2 SWAP1 POP JUMP JUMPDEST PUSH1 0x0 DUP2 MLOAD SWAP1 POP SWAP2 SWAP1 POP JUMP JUMPDEST PUSH1 0x0 DUP3 DUP3 MSTORE PUSH1 0x20 DUP3 ADD SWAP1 POP SWAP3 SWAP2 POP POP JUMP JUMPDEST PUSH1 0x0 JUMPDEST DUP4 DUP2 LT ISZERO PUSH2 0x1450 JUMPI DUP1 DUP3 ADD MLOAD DUP2 DUP5 ADD MSTORE PUSH1 0x20 DUP2 ADD SWAP1 POP PUSH2 0x1435 JUMP JUMPDEST PUSH1 0x0 DUP5 DUP5 ADD MSTORE POP POP POP POP JUMP JUMPDEST PUSH1 0x0 PUSH2 0x1467 DUP3 PUSH2 0x1416 JUMP JUMPDEST PUSH2 0x1471 DUP2 DUP6 PUSH2 0x1421 JUMP JUMPDEST SWAP4 POP PUSH2 0x1481 DUP2 DUP6 PUSH1 0x20 DUP7 ADD PUSH2 0x1432 JUMP JUMPDEST PUSH2 0x148A DUP2 PUSH2 0x11AB JUMP JUMPDEST DUP5 ADD SWAP2 POP POP SWAP3 SWAP2 POP POP JUMP JUMPDEST PUSH1 0x0 DUP2 SWAP1 POP SWAP2 SWAP1 POP JUMP JUMPDEST PUSH2 0x14A8 DUP2 PUSH2 0x1495 JUMP JUMPDEST DUP3 MSTORE POP POP JUMP JUMPDEST PUSH1 0x0 PUSH1 0x40 DUP4 ADD PUSH1 0x0 DUP4 ADD MLOAD DUP5 DUP3 SUB PUSH1 0x0 DUP7 ADD MSTORE PUSH2 0x14CB DUP3 DUP3 PUSH2 0x145C JUMP JUMPDEST SWAP2 POP POP PUSH1 0x20 DUP4 ADD MLOAD PUSH2 0x14E0 PUSH1 0x20 DUP7 ADD DUP3 PUSH2 0x149F JUMP JUMPDEST POP DUP1 SWAP2 POP POP SWAP3 SWAP2 POP POP JUMP JUMPDEST PUSH1 0x0 PUSH2 0x14F7 DUP4 DUP4 PUSH2 0x14AE JUMP JUMPDEST SWAP1 POP SWAP3 SWAP2 POP POP JUMP JUMPDEST PUSH1 0x0 PUSH1 0x20 DUP3 ADD SWAP1 POP SWAP2 SWAP1 POP JUMP JUMPDEST PUSH1 0x0 PUSH2 0x1517 DUP3 PUSH2 0x13EA JUMP JUMPDEST PUSH2 0x1521 DUP2 DUP6 PUSH2 0x13F5 JUMP JUMPDEST SWAP4 POP DUP4 PUSH1 0x20 DUP3 MUL DUP6 ADD PUSH2 0x1533 DUP6 PUSH2 0x1406 JUMP JUMPDEST DUP1 PUSH1 0x0 JUMPDEST DUP6 DUP2 LT ISZERO PUSH2 0x156F JUMPI DUP5 DUP5 SUB DUP10 MSTORE DUP2 MLOAD PUSH2 0x1550 DUP6 DUP3 PUSH2 0x14EB JUMP JUMPDEST SWAP5 POP PUSH2 0x155B DUP4 PUSH2 0x14FF JUMP JUMPDEST SWAP3 POP PUSH1 0x20 DUP11 ADD SWAP10 POP POP PUSH1 0x1 DUP2 ADD SWAP1 POP PUSH2 0x1537 JUMP JUMPDEST POP DUP3 SWAP8 POP DUP8 SWAP6 POP POP POP POP POP POP SWAP3 SWAP2 POP POP JUMP JUMPDEST PUSH1 0x0 PUSH1 0x20 DUP3 ADD SWAP1 POP DUP2 DUP2 SUB PUSH1 0x0 DUP4 ADD MSTORE PUSH2 0x159B DUP2 DUP5 PUSH2 0x150C JUMP JUMPDEST SWAP1 POP SWAP3 SWAP2 POP POP JUMP JUMPDEST PUSH2 0x15AC DUP2 PUSH2 0x13AE JUMP JUMPDEST DUP2 EQ PUSH2 0x15B7 JUMPI PUSH1 0x0 DUP1 REVERT JUMPDEST POP JUMP JUMPDEST PUSH1 0x0 DUP2 CALLDATALOAD SWAP1 POP PUSH2 0x15C9 DUP2 PUSH2 0x15A3 JUMP JUMPDEST SWAP3 SWAP2 POP POP JUMP JUMPDEST PUSH1 0x0 PUSH1 0x20 DUP3 DUP5 SUB SLT ISZERO PUSH2 0x15E5 JUMPI PUSH2 0x15E4 PUSH2 0x1197 JUMP JUMPDEST JUMPDEST PUSH1 0x0 PUSH2 0x15F3 DUP5 DUP3 DUP6 ADD PUSH2 0x15BA JUMP JUMPDEST SWAP2 POP POP SWAP3 SWAP2 POP POP JUMP JUMPDEST PUSH1 0x0 DUP1 PUSH1 0x0 PUSH1 0x60 DUP5 DUP7 SUB SLT ISZERO PUSH2 0x1615 JUMPI PUSH2 0x1614 PUSH2 0x1197 JUMP JUMPDEST JUMPDEST PUSH1 0x0 PUSH2 0x1623 DUP7 DUP3 DUP8 ADD PUSH2 0x15BA JUMP JUMPDEST SWAP4 POP POP PUSH1 0x20 DUP5 ADD CALLDATALOAD PUSH8 0xFFFFFFFFFFFFFFFF DUP2 GT ISZERO PUSH2 0x1644 JUMPI PUSH2 0x1643 PUSH2 0x119C JUMP JUMPDEST JUMPDEST PUSH2 0x1650 DUP7 DUP3 DUP8 ADD PUSH2 0x12B9 JUMP JUMPDEST SWAP3 POP POP PUSH1 0x40 DUP5 ADD CALLDATALOAD PUSH8 0xFFFFFFFFFFFFFFFF DUP2 GT ISZERO PUSH2 0x1671 JUMPI PUSH2 0x1670 PUSH2 0x119C JUMP JUMPDEST JUMPDEST PUSH2 0x167D DUP7 DUP3 DUP8 ADD PUSH2 0x12B9 JUMP JUMPDEST SWAP2 POP POP SWAP3 POP SWAP3 POP SWAP3 JUMP JUMPDEST PUSH1 0x0 DUP3 DUP3 MSTORE PUSH1 0x20 DUP3 ADD SWAP1 POP SWAP3 SWAP2 POP POP JUMP JUMPDEST PUSH1 0x0 PUSH2 0x16A3 DUP3 PUSH2 0x1416 JUMP JUMPDEST PUSH2 0x16AD DUP2 DUP6 PUSH2 0x1687 JUMP JUMPDEST SWAP4 POP PUSH2 0x16BD DUP2 DUP6 PUSH1 0x20 DUP7 ADD PUSH2 0x1432 JUMP JUMPDEST PUSH2 0x16C6 DUP2 PUSH2 0x11AB JUMP JUMPDEST DUP5 ADD SWAP2 POP POP SWAP3 SWAP2 POP POP JUMP JUMPDEST PUSH1 0x0 DUP2 SWAP1 POP SWAP2 SWAP1 POP JUMP JUMPDEST PUSH2 0x16E4 DUP2 PUSH2 0x16D1 JUMP JUMPDEST DUP3 MSTORE POP POP JUMP JUMPDEST PUSH1 0x0 DUP2 MLOAD SWAP1 POP SWAP2 SWAP1 POP JUMP JUMPDEST PUSH1 0x0 DUP3 DUP3 MSTORE PUSH1 0x20 DUP3 ADD SWAP1 POP SWAP3 SWAP2 POP POP JUMP JUMPDEST PUSH1 0x0 DUP2 SWAP1 POP PUSH1 0x20 DUP3 ADD SWAP1 POP SWAP2 SWAP1 POP JUMP JUMPDEST PUSH1 0x0 PUSH2 0x1722 DUP4 DUP4 PUSH2 0x145C JUMP JUMPDEST SWAP1 POP SWAP3 SWAP2 POP POP JUMP JUMPDEST PUSH1 0x0 PUSH1 0x20 DUP3 ADD SWAP1 POP SWAP2 SWAP1 POP JUMP JUMPDEST PUSH1 0x0 PUSH2 0x1742 DUP3 PUSH2 0x16EA JUMP JUMPDEST PUSH2 0x174C DUP2 DUP6 PUSH2 0x16F5 JUMP JUMPDEST SWAP4 POP DUP4 PUSH1 0x20 DUP3 MUL DUP6 ADD PUSH2 0x175E DUP6 PUSH2 0x1706 JUMP JUMPDEST DUP1 PUSH1 0x0 JUMPDEST DUP6 DUP2 LT ISZERO PUSH2 0x179A JUMPI DUP5 DUP5 SUB DUP10 MSTORE DUP2 MLOAD PUSH2 0x177B DUP6 DUP3 PUSH2 0x1716 JUMP JUMPDEST SWAP5 POP PUSH2 0x1786 DUP4 PUSH2 0x172A JUMP JUMPDEST SWAP3 POP PUSH1 0x20 DUP11 ADD SWAP10 POP POP PUSH1 0x1 DUP2 ADD SWAP1 POP PUSH2 0x1762 JUMP JUMPDEST POP DUP3 SWAP8 POP DUP8 SWAP6 POP POP POP POP POP POP SWAP3 SWAP2 POP POP JUMP JUMPDEST PUSH1 0x0 DUP2 MLOAD SWAP1 POP SWAP2 SWAP1 POP JUMP JUMPDEST PUSH1 0x0 DUP3 DUP3 MSTORE PUSH1 0x20 DUP3 ADD SWAP1 POP SWAP3 SWAP2 POP POP JUMP JUMPDEST PUSH1 0x0 DUP2 SWAP1 POP PUSH1 0x20 DUP3 ADD SWAP1 POP SWAP2 SWAP1 POP JUMP JUMPDEST PUSH1 0x0 PUSH2 0x17E4 DUP4 DUP4 PUSH2 0x149F JUMP JUMPDEST PUSH1 0x20 DUP4 ADD SWAP1 POP SWAP3 SWAP2 POP POP JUMP JUMPDEST PUSH1 0x0 PUSH1 0x20 DUP3 ADD SWAP1 POP SWAP2 SWAP1 POP JUMP JUMPDEST PUSH1 0x0 PUSH2 0x1808 DUP3 PUSH2 0x17AC JUMP JUMPDEST PUSH2 0x1812 DUP2 DUP6 PUSH2 0x17B7 JUMP JUMPDEST SWAP4 POP PUSH2 0x181D DUP4 PUSH2 0x17C8 JUMP JUMPDEST DUP1 PUSH1 0x0 JUMPDEST DUP4 DUP2 LT ISZERO PUSH2 0x184E JUMPI DUP2 MLOAD PUSH2 0x1835 DUP9 DUP3 PUSH2 0x17D8 JUMP JUMPDEST SWAP8 POP PUSH2 0x1840 DUP4 PUSH2 0x17F0 JUMP JUMPDEST SWAP3 POP POP PUSH1 0x1 DUP2 ADD SWAP1 POP PUSH2 0x1821 JUMP JUMPDEST POP DUP6 SWAP4 POP POP POP POP SWAP3 SWAP2 POP POP JUMP JUMPDEST PUSH1 0x0 PUSH1 0x60 DUP4 ADD PUSH1 0x0 DUP4 ADD MLOAD PUSH2 0x1873 PUSH1 0x0 DUP7 ADD DUP3 PUSH2 0x16DB JUMP JUMPDEST POP PUSH1 0x20 DUP4 ADD MLOAD DUP5 DUP3 SUB PUSH1 0x20 DUP7 ADD MSTORE PUSH2 0x188B DUP3 DUP3 PUSH2 0x1737 JUMP JUMPDEST SWAP2 POP POP PUSH1 0x40 DUP4 ADD MLOAD DUP5 DUP3 SUB PUSH1 0x40 DUP7 ADD MSTORE PUSH2 0x18A5 DUP3 DUP3 PUSH2 0x17FD JUMP JUMPDEST SWAP2 POP POP DUP1 SWAP2 POP POP SWAP3 SWAP2 POP POP JUMP JUMPDEST PUSH1 0x0 PUSH1 0x40 DUP3 ADD SWAP1 POP DUP2 DUP2 SUB PUSH1 0x0 DUP4 ADD MSTORE PUSH2 0x18CC DUP2 DUP6 PUSH2 0x1698 JUMP JUMPDEST SWAP1 POP DUP2 DUP2 SUB PUSH1 0x20 DUP4 ADD MSTORE PUSH2 0x18E0 DUP2 DUP5 PUSH2 0x185B JUMP JUMPDEST SWAP1 POP SWAP4 SWAP3 POP POP POP JUMP JUMPDEST PUSH1 0x0 DUP2 SWAP1 POP SWAP3 SWAP2 POP POP JUMP JUMPDEST PUSH1 0x0 PUSH2 0x18FF DUP3 PUSH2 0x1416 JUMP JUMPDEST PUSH2 0x1909 DUP2 DUP6 PUSH2 0x18E9 JUMP JUMPDEST SWAP4 POP PUSH2 0x1919 DUP2 DUP6 PUSH1 0x20 DUP7 ADD PUSH2 0x1432 JUMP JUMPDEST DUP1 DUP5 ADD SWAP2 POP POP SWAP3 SWAP2 POP POP JUMP JUMPDEST PUSH1 0x0 PUSH2 0x1931 DUP3 DUP5 PUSH2 0x18F4 JUMP JUMPDEST SWAP2 POP DUP2 SWAP1 POP SWAP3 SWAP2 POP POP JUMP JUMPDEST PUSH32 0x596F7520646F6E27742068617665206120726567697374726564206461746120 PUSH1 0x0 DUP3 ADD MSTORE PUSH32 0x776974682074686973206E616D65202121000000000000000000000000000000 PUSH1 0x20 DUP3 ADD MSTORE POP JUMP JUMPDEST PUSH1 0x0 PUSH2 0x1998 PUSH1 0x31 DUP4 PUSH2 0x1687 JUMP JUMPDEST SWAP2 POP PUSH2 0x19A3 DUP3 PUSH2 0x193C JUMP JUMPDEST PUSH1 0x40 DUP3 ADD SWAP1 POP SWAP2 SWAP1 POP JUMP JUMPDEST PUSH1 0x0 PUSH1 0x20 DUP3 ADD SWAP1 POP DUP2 DUP2 SUB PUSH1 0x0 DUP4 ADD MSTORE PUSH2 0x19C7 DUP2 PUSH2 0x198B JUMP JUMPDEST SWAP1 POP SWAP2 SWAP1 POP JUMP JUMPDEST PUSH32 0x4E487B7100000000000000000000000000000000000000000000000000000000 PUSH1 0x0 MSTORE PUSH1 0x22 PUSH1 0x4 MSTORE PUSH1 0x24 PUSH1 0x0 REVERT JUMPDEST PUSH1 0x0 PUSH1 0x2 DUP3 DIV SWAP1 POP PUSH1 0x1 DUP3 AND DUP1 PUSH2 0x1A15 JUMPI PUSH1 0x7F DUP3 AND SWAP2 POP JUMPDEST PUSH1 0x20 DUP3 LT DUP2 SUB PUSH2 0x1A28 JUMPI PUSH2 0x1A27 PUSH2 0x19CE JUMP JUMPDEST JUMPDEST POP SWAP2 SWAP1 POP JUMP JUMPDEST PUSH1 0x0 DUP2 SWAP1 POP DUP2 PUSH1 0x0 MSTORE PUSH1 0x20 PUSH1 0x0 KECCAK256 SWAP1 POP SWAP2 SWAP1 POP JUMP JUMPDEST PUSH1 0x0 PUSH1 0x20 PUSH1 0x1F DUP4 ADD DIV SWAP1 POP SWAP2 SWAP1 POP JUMP JUMPDEST PUSH1 0x0 DUP3 DUP3 SHL SWAP1 POP SWAP3 SWAP2 POP POP JUMP JUMPDEST PUSH1 0x0 PUSH1 0x8 DUP4 MUL PUSH2 0x1A90 PUSH32 0xFFFFFFFFFFFFFFFFFFFFFFFFFFFFFFFFFFFFFFFFFFFFFFFFFFFFFFFFFFFFFFFF DUP3 PUSH2 0x1A53 JUMP JUMPDEST PUSH2 0x1A9A DUP7 DUP4 PUSH2 0x1A53 JUMP JUMPDEST SWAP6 POP DUP1 NOT DUP5 AND SWAP4 POP DUP1 DUP7 AND DUP5 OR SWAP3 POP POP POP SWAP4 SWAP3 POP POP POP JUMP JUMPDEST PUSH1 0x0 DUP2 SWAP1 POP SWAP2 SWAP1 POP JUMP JUMPDEST PUSH1 0x0 PUSH2 0x1AD7 PUSH2 0x1AD2 PUSH2 0x1ACD DUP5 PUSH2 0x1495 JUMP JUMPDEST PUSH2 0x1AB2 JUMP JUMPDEST PUSH2 0x1495 JUMP JUMPDEST SWAP1 POP SWAP2 SWAP1 POP JUMP JUMPDEST PUSH1 0x0 DUP2 SWAP1 POP SWAP2 SWAP1 POP JUMP JUMPDEST PUSH2 0x1AF1 DUP4 PUSH2 0x1ABC JUMP JUMPDEST PUSH2 0x1B05 PUSH2 0x1AFD DUP3 PUSH2 0x1ADE JUMP JUMPDEST DUP5 DUP5 SLOAD PUSH2 0x1A60 JUMP JUMPDEST DUP3 SSTORE POP POP POP POP JUMP JUMPDEST PUSH1 0x0 SWAP1 JUMP JUMPDEST PUSH2 0x1B1A PUSH2 0x1B0D JUMP JUMPDEST PUSH2 0x1B25 DUP2 DUP5 DUP5 PUSH2 0x1AE8 JUMP JUMPDEST POP POP POP JUMP JUMPDEST JUMPDEST DUP2 DUP2 LT ISZERO PUSH2 0x1B49 JUMPI PUSH2 0x1B3E PUSH1 0x0 DUP3 PUSH2 0x1B12 JUMP JUMPDEST PUSH1 0x1 DUP2 ADD SWAP1 POP PUSH2 0x1B2B JUMP JUMPDEST POP POP JUMP JUMPDEST PUSH1 0x1F DUP3 GT ISZERO PUSH2 0x1B8E JUMPI PUSH2 0x1B5F DUP2 PUSH2 0x1A2E JUMP JUMPDEST PUSH2 0x1B68 DUP5 PUSH2 0x1A43 JUMP JUMPDEST DUP2 ADD PUSH1 0x20 DUP6 LT ISZERO PUSH2 0x1B77 JUMPI DUP2 SWAP1 POP JUMPDEST PUSH2 0x1B8B PUSH2 0x1B83 DUP6 PUSH2 0x1A43 JUMP JUMPDEST DUP4 ADD DUP3 PUSH2 0x1B2A JUMP JUMPDEST POP POP JUMPDEST POP POP POP JUMP JUMPDEST PUSH1 0x0 DUP3 DUP3 SHR SWAP1 POP SWAP3 SWAP2 POP POP JUMP JUMPDEST PUSH1 0x0 PUSH2 0x1BB1 PUSH1 0x0 NOT DUP5 PUSH1 0x8 MUL PUSH2 0x1B93 JUMP JUMPDEST NOT DUP1 DUP4 AND SWAP2 POP POP SWAP3 SWAP2 POP POP JUMP JUMPDEST PUSH1 0x0 PUSH2 0x1BCA DUP4 DUP4 PUSH2 0x1BA0 JUMP JUMPDEST SWAP2 POP DUP3 PUSH1 0x2 MUL DUP3 OR SWAP1 POP SWAP3 SWAP2 POP POP JUMP JUMPDEST PUSH2 0x1BE3 DUP3 PUSH2 0x1416 JUMP JUMPDEST PUSH8 0xFFFFFFFFFFFFFFFF DUP2 GT ISZERO PUSH2 0x1BFC JUMPI PUSH2 0x1BFB PUSH2 0x11BC JUMP JUMPDEST JUMPDEST PUSH2 0x1C06 DUP3 SLOAD PUSH2 0x19FD JUMP JUMPDEST PUSH2 0x1C11 DUP3 DUP3 DUP6 PUSH2 0x1B4D JUMP JUMPDEST PUSH1 0x0 PUSH1 0x20 SWAP1 POP PUSH1 0x1F DUP4 GT PUSH1 0x1 DUP2 EQ PUSH2 0x1C44 JUMPI PUSH1 0x0 DUP5 ISZERO PUSH2 0x1C32 JUMPI DUP3 DUP8 ADD MLOAD SWAP1 POP JUMPDEST PUSH2 0x1C3C DUP6 DUP3 PUSH2 0x1BBE JUMP JUMPDEST DUP7 SSTORE POP PUSH2 0x1CA4 JUMP JUMPDEST PUSH1 0x1F NOT DUP5 AND PUSH2 0x1C52 DUP7 PUSH2 0x1A2E JUMP JUMPDEST PUSH1 0x0 JUMPDEST DUP3 DUP2 LT ISZERO PUSH2 0x1C7A JUMPI DUP5 DUP10 ADD MLOAD DUP3 SSTORE PUSH1 0x1 DUP3 ADD SWAP2 POP PUSH1 0x20 DUP6 ADD SWAP5 POP PUSH1 0x20 DUP2 ADD SWAP1 POP PUSH2 0x1C55 JUMP JUMPDEST DUP7 DUP4 LT ISZERO PUSH2 0x1C97 JUMPI DUP5 DUP10 ADD MLOAD PUSH2 0x1C93 PUSH1 0x1F DUP10 AND DUP3 PUSH2 0x1BA0 JUMP JUMPDEST DUP4 SSTORE POP JUMPDEST PUSH1 0x1 PUSH1 0x2 DUP9 MUL ADD DUP9 SSTORE POP POP POP JUMPDEST POP POP POP POP POP POP JUMP JUMPDEST PUSH1 0x0 PUSH1 0x40 DUP3 ADD SWAP1 POP DUP2 DUP2 SUB PUSH1 0x0 DUP4 ADD MSTORE PUSH2 0x1CC6 DUP2 DUP6 PUSH2 0x1698 JUMP JUMPDEST SWAP1 POP DUP2 DUP2 SUB PUSH1 0x20 DUP4 ADD MSTORE PUSH2 0x1CDA DUP2 DUP5 PUSH2 0x1698 JUMP JUMPDEST SWAP1 POP SWAP4 SWAP3 POP POP POP JUMP JUMPDEST PUSH32 0x596F7520616C72656164792068617665206120646174612075706C6F61646564 PUSH1 0x0 DUP3 ADD MSTORE PUSH32 0x20776974682074686973206E616D652000000000000000000000000000000000 PUSH1 0x20 DUP3 ADD MSTORE POP JUMP JUMPDEST PUSH1 0x0 PUSH2 0x1D3F PUSH1 0x30 DUP4 PUSH2 0x1687 JUMP JUMPDEST SWAP2 POP PUSH2 0x1D4A DUP3 PUSH2 0x1CE3 JUMP JUMPDEST PUSH1 0x40 DUP3 ADD SWAP1 POP SWAP2 SWAP1 POP JUMP JUMPDEST PUSH1 0x0 PUSH1 0x20 DUP3 ADD SWAP1 POP DUP2 DUP2 SUB PUSH1 0x0 DUP4 ADD MSTORE PUSH2 0x1D6E DUP2 PUSH2 0x1D32 JUMP JUMPDEST SWAP1 POP SWAP2 SWAP1 POP JUMP JUMPDEST PUSH1 0x0 PUSH1 0x20 DUP3 ADD SWAP1 POP DUP2 DUP2 SUB PUSH1 0x0 DUP4 ADD MSTORE PUSH2 0x1D8F DUP2 DUP5 PUSH2 0x1698 JUMP JUMPDEST SWAP1 POP SWAP3 SWAP2 POP POP JUMP JUMPDEST PUSH32 0x596F75206469646E27742075706C6F616420616E792064617461207965742021 PUSH1 0x0 DUP3 ADD MSTORE PUSH32 0x2120000000000000000000000000000000000000000000000000000000000000 PUSH1 0x20 DUP3 ADD MSTORE POP JUMP JUMPDEST PUSH1 0x0 PUSH2 0x1DF3 PUSH1 0x22 DUP4 PUSH2 0x1687 JUMP JUMPDEST SWAP2 POP PUSH2 0x1DFE DUP3 PUSH2 0x1D97 JUMP JUMPDEST PUSH1 0x40 DUP3 ADD SWAP1 POP SWAP2 SWAP1 POP JUMP JUMPDEST PUSH1 0x0 PUSH1 0x20 DUP3 ADD SWAP1 POP DUP2 DUP2 SUB PUSH1 0x0 DUP4 ADD MSTORE PUSH2 0x1E22 DUP2 PUSH2 0x1DE6 JUMP JUMPDEST SWAP1 POP SWAP2 SWAP1 POP JUMP JUMPDEST PUSH1 0x0 DUP2 SWAP1 POP SWAP2 SWAP1 POP JUMP JUMPDEST PUSH1 0x0 PUSH8 0xFFFFFFFFFFFFFFFF DUP3 AND SWAP1 POP SWAP2 SWAP1 POP JUMP JUMPDEST PUSH1 0x0 PUSH2 0x1E62 PUSH2 0x1E5D PUSH2 0x1E58 DUP5 PUSH2 0x1E29 JUMP JUMPDEST PUSH2 0x1AB2 JUMP JUMPDEST PUSH2 0x1E33 JUMP JUMPDEST SWAP1 POP SWAP2 SWAP1 POP JUMP JUMPDEST PUSH2 0x1E72 DUP2 PUSH2 0x1E47 JUMP JUMPDEST DUP3 MSTORE POP POP JUMP JUMPDEST PUSH1 0x0 PUSH1 0x20 DUP3 ADD SWAP1 POP PUSH2 0x1E8D PUSH1 0x0 DUP4 ADD DUP5 PUSH2 0x1E69 JUMP JUMPDEST SWAP3 SWAP2 POP POP JUMP JUMPDEST PUSH32 0x5468697320417574686572206469646E27742075706C6F616420616E79204461 PUSH1 0x0 DUP3 ADD MSTORE PUSH32 0x746120776974682074686973206E616D652C20706C6561736520636865636B20 PUSH1 0x20 DUP3 ADD MSTORE PUSH32 0x7468652075706C6F616465642066696C65206E616D6520616E6420617574686F PUSH1 0x40 DUP3 ADD MSTORE PUSH32 0x72206164647265737320616E642074727920616761696E000000000000000000 PUSH1 0x60 DUP3 ADD MSTORE POP JUMP JUMPDEST PUSH1 0x0 PUSH2 0x1F3B PUSH1 0x77 DUP4 PUSH2 0x1687 JUMP JUMPDEST SWAP2 POP PUSH2 0x1F46 DUP3 PUSH2 0x1E93 JUMP JUMPDEST PUSH1 0x80 DUP3 ADD SWAP1 POP SWAP2 SWAP1 POP JUMP JUMPDEST PUSH1 0x0 PUSH1 0x20 DUP3 ADD SWAP1 POP DUP2 DUP2 SUB PUSH1 0x0 DUP4 ADD MSTORE PUSH2 0x1F6A DUP2 PUSH2 0x1F2E JUMP JUMPDEST SWAP1 POP SWAP2 SWAP1 POP JUMP JUMPDEST PUSH1 0x0 DUP2 SLOAD SWAP1 POP PUSH2 0x1F80 DUP2 PUSH2 0x19FD JUMP JUMPDEST SWAP1 POP SWAP2 SWAP1 POP JUMP JUMPDEST DUP2 DUP2 SUB PUSH2 0x1F95 JUMPI POP POP PUSH2 0x206D JUMP JUMPDEST PUSH2 0x1F9E DUP3 PUSH2 0x1F71 JUMP JUMPDEST PUSH8 0xFFFFFFFFFFFFFFFF DUP2 GT ISZERO PUSH2 0x1FB7 JUMPI PUSH2 0x1FB6 PUSH2 0x11BC JUMP JUMPDEST JUMPDEST PUSH2 0x1FC1 DUP3 SLOAD PUSH2 0x19FD JUMP JUMPDEST PUSH2 0x1FCC DUP3 DUP3 DUP6 PUSH2 0x1B4D JUMP JUMPDEST PUSH1 0x0 PUSH1 0x1F DUP4 GT PUSH1 0x1 DUP2 EQ PUSH2 0x1FFB JUMPI PUSH1 0x0 DUP5 ISZERO PUSH2 0x1FE9 JUMPI DUP3 DUP8 ADD SLOAD SWAP1 POP JUMPDEST PUSH2 0x1FF3 DUP6 DUP3 PUSH2 0x1BBE JUMP JUMPDEST DUP7 SSTORE POP PUSH2 0x2066 JUMP JUMPDEST PUSH1 0x1F NOT DUP5 AND PUSH2 0x2009 DUP8 PUSH2 0x1A2E JUMP JUMPDEST SWAP7 POP PUSH2 0x2014 DUP7 PUSH2 0x1A2E JUMP JUMPDEST PUSH1 0x0 JUMPDEST DUP3 DUP2 LT ISZERO PUSH2 0x203C JUMPI DUP5 DUP10 ADD SLOAD DUP3 SSTORE PUSH1 0x1 DUP3 ADD SWAP2 POP PUSH1 0x1 DUP6 ADD SWAP5 POP PUSH1 0x20 DUP2 ADD SWAP1 POP PUSH2 0x2017 JUMP JUMPDEST DUP7 DUP4 LT ISZERO PUSH2 0x2059 JUMPI DUP5 DUP10 ADD SLOAD PUSH2 0x2055 PUSH1 0x1F DUP10 AND DUP3 PUSH2 0x1BA0 JUMP JUMPDEST DUP4 SSTORE POP JUMPDEST PUSH1 0x1 PUSH1 0x2 DUP9 MUL ADD DUP9 SSTORE POP POP POP JUMPDEST POP POP POP POP POP POP JUMPDEST JUMP INVALID SLOAD PUSH9 0x69732044617461206D PUSH2 0x7463 PUSH9 0x657320746865206F6E PUSH6 0x2073746F7265 PUSH5 0x2062792061 PUSH22 0x74686F722C206974206861736E2774206265656E206D PUSH16 0x6469666965642066726F6D206C617374 KECCAK256 PUSH22 0x7064617465202054686973204461746120646F65736E 0x27 PUSH21 0x206D617463682C20697420686173206265656E206D PUSH16 0x6469666965642C206974277320646966 PUSH7 0x6572656E742066 PUSH19 0x6F6D206C6173742076657273696F6E2073746F PUSH19 0x65642021212020A2646970667358221220AE91 SWAP4 0xDA 0x28 SWAP11 PUSH2 0x938F NUMBER 0xD1 0xFB SWAP9 0x2F 0x24 SWAP15 SLOAD SAR 0xCD 0xE4 0xC4 DUP11 CALLER 0xDE 0xA6 ADD 0xC9 0xE0 0xBA 0xD5 0xF9 LOG0 PUSH5 0x736F6C6343 STOP ADDMOD XOR STOP CALLER "},"methodIdentifiers":{"checkDataIntegrity(address,string,string)":"ce71167a","getHistory()":"aa15efc8","initialize(address)":"c4d66de8","owner()":"8da5cb5b","renounceOwnership()":"715018a6","transferOwnership(address)":"f2fde38b","updateData(string,string,string)":"55995dba","uploadData(string,string,string)":"75700b5e"}},"storageLayout":{"storage":[{"astId":535,"contract":"contracts/SecureLedger.sol:SecureLedger","label":"details","offset":0,"slot":"0","type":"t_struct(Details)527_storage"},{"astId":553,"contract":"contracts/SecureLedger.sol:SecureLedger","label":"authorDocs","offset":0,"slot":"3","type":"t_mapping(t_address,t_array(t_struct(DataUploadInfo)532_storage)dyn_storage)"},{"astId":560,"contract":"contracts/SecureLedger.sol:SecureLedger","label":"FileHash","offset":0,"slot":"4","type":"t_mapping(t_address,t_mapping(t_string_memory_ptr,t_struct(Details)527_storage))"}],"types":{"t_address":{"encoding":"inplace","label":"address","numberOfBytes":"20"},"t_array(t_string_storage)dyn_storage":{"base":"t_string_storage","encoding":"dynamic_array","label":"string[]","numberOfBytes":"32"},"t_array(t_struct(DataUploadInfo)532_storage)dyn_storage":{"base":"t_struct(DataUploadInfo)532_storage","encoding":"dynamic_array","label":"struct SecureLedger.DataUploadInfo[]","numberOfBytes":"32"},"t_array(t_uint256)dyn_storage":{"base":"t_uint256","encoding":"dynamic_array","label":"uint256[]","numberOfBytes":"32"},"t_bytes32":{"encoding":"inplace","label":"bytes32","numberOfBytes":"32"},"t_mapping(t_address,t_array(t_struct(DataUploadInfo)532_storage)dyn_storage)":{"encoding":"mapping","key":"t_address","label":"mapping(address => struct SecureLedger.DataUploadInfo[])","numberOfBytes":"32","value":"t_array(t_struct(DataUploadInfo)532_storage)dyn_storage"},"t_mapping(t_address,t_mapping(t_string_memory_ptr,t_struct(Details)527_storage))":{"encoding":"mapping","key":"t_address","label":"mapping(address => mapping(string => struct SecureLedger.Details))","numberOfBytes":"32","value":"t_mapping(t_string_memory_ptr,t_struct(Details)527_storage)"},"t_mapping(t_string_memory_ptr,t_struct(Details)527_storage)":{"encoding":"mapping","key":"t_string_memory_ptr","label":"mapping(string => struct SecureLedger.Details)","numberOfBytes":"32","value":"t_struct(Details)527_storage"},"t_string_memory_ptr":{"encoding":"bytes","label":"string","numberOfBytes":"32"},"t_string_storage":{"encoding":"bytes","label":"string","numberOfBytes":"32"},"t_struct(DataUploadInfo)532_storage":{"encoding":"inplace","label":"struct SecureLedger.DataUploadInfo","members":[{"astId":529,"contract":"contracts/SecureLedger.sol:SecureLedger","label":"dataName","offset":0,"slot":"0","type":"t_string_storage"},{"astId":531,"contract":"contracts/SecureLedger.sol:SecureLedger","label":"timestamp","offset":0,"slot":"1","type":"t_uint256"}],"numberOfBytes":"64"},"t_struct(Details)527_storage":{"encoding":"inplace","label":"struct SecureLedger.Details","members":[{"astId":520,"contract":"contracts/SecureLedger.sol:SecureLedger","label":"Hash","offset":0,"slot":"0","type":"t_bytes32"},{"astId":523,"contract":"contracts/SecureLedger.sol:SecureLedger","label":"Commits","offset":0,"slot":"1","type":"t_array(t_string_storage)dyn_storage"},{"astId":526,"contract":"contracts/SecureLedger.sol:SecureLedger","label":"timestamp","offset":0,"slot":"2","type":"t_array(t_uint256)dyn_storage"}],"numberOfBytes":"96"},"t_uint256":{"encoding":"inplace","label":"uint256","numberOfBytes":"32"}}}}}}