{
  "_format": "hh-sol-artifact-1",
  "contractName": "SecureLedger",
  "sourceName": "contracts/SecureLedger.sol",
  "abi": [
    {
      "inputs": [
        {
          "internalType": "address",
          "name": "_owner",
          "type": "address"
        }
      ],
      "stateMutability": "nonpayable",
      "type": "constructor"
    },
    {
      "inputs": [
        {
          "internalType": "string",
          "name": "",
          "type": "string"
        }
      ],
      "name": "FileHash",
      "outputs": [
        {
          "internalType": "bytes32",
          "name": "Hash",
          "type": "bytes32"
        },
        {
          "internalType": "string",
          "name": "previous_commit",
          "type": "string"
        },
        {
          "internalType": "string",
          "name": "current_commit",
          "type": "string"
        },
        {
          "internalType": "uint256",
          "name": "timestamp",
          "type": "uint256"
        }
      ],
      "stateMutability": "view",
      "type": "function"
    },
    {
      "inputs": [
        {
          "internalType": "string",
          "name": "_url",
          "type": "string"
        },
        {
          "internalType": "string",
          "name": "_newContent",
          "type": "string"
        }
      ],
      "name": "checkDataIntegrity",
      "outputs": [
        {
          "internalType": "string",
          "name": "",
          "type": "string"
        },
        {
          "components": [
            {
              "internalType": "bytes32",
              "name": "Hash",
              "type": "bytes32"
            },
            {
              "internalType": "string",
              "name": "previous_commit",
              "type": "string"
            },
            {
              "internalType": "string",
              "name": "current_commit",
              "type": "string"
            },
            {
              "internalType": "uint256",
              "name": "timestamp",
              "type": "uint256"
            }
          ],
          "internalType": "struct SecureLedger.Details",
          "name": "",
          "type": "tuple"
        }
      ],
      "stateMutability": "view",
      "type": "function"
    },
    {
      "inputs": [],
      "name": "name",
      "outputs": [
        {
          "internalType": "string",
          "name": "",
          "type": "string"
        }
      ],
      "stateMutability": "view",
      "type": "function"
    },
    {
      "inputs": [
        {
          "internalType": "string",
          "name": "_url",
          "type": "string"
        },
        {
          "internalType": "string",
          "name": "_content",
          "type": "string"
        },
        {
          "internalType": "string",
          "name": "_commit",
          "type": "string"
        }
      ],
      "name": "updateFileHash",
      "outputs": [],
      "stateMutability": "nonpayable",
      "type": "function"
    }
  ],
  "bytecode": "0x60806040526040518060400160405280600e81526020017f4461746120496e74656772697479000000000000000000000000000000000000815250600190816200004a91906200033f565b503480156200005857600080fd5b5060405162001a3a38038062001a3a83398181016040528101906200007e919062000490565b806000806101000a81548173ffffffffffffffffffffffffffffffffffffffff021916908373ffffffffffffffffffffffffffffffffffffffff16021790555050620004c2565b600081519050919050565b7f4e487b7100000000000000000000000000000000000000000000000000000000600052604160045260246000fd5b7f4e487b7100000000000000000000000000000000000000000000000000000000600052602260045260246000fd5b600060028204905060018216806200014757607f821691505b6020821081036200015d576200015c620000ff565b5b50919050565b60008190508160005260206000209050919050565b60006020601f8301049050919050565b600082821b905092915050565b600060088302620001c77fffffffffffffffffffffffffffffffffffffffffffffffffffffffffffffffff8262000188565b620001d3868362000188565b95508019841693508086168417925050509392505050565b6000819050919050565b6000819050919050565b6000620002206200021a6200021484620001eb565b620001f5565b620001eb565b9050919050565b6000819050919050565b6200023c83620001ff565b620002546200024b8262000227565b84845462000195565b825550505050565b600090565b6200026b6200025c565b6200027881848462000231565b505050565b5b81811015620002a0576200029460008262000261565b6001810190506200027e565b5050565b601f821115620002ef57620002b98162000163565b620002c48462000178565b81016020851015620002d4578190505b620002ec620002e38562000178565b8301826200027d565b50505b505050565b600082821c905092915050565b60006200031460001984600802620002f4565b1980831691505092915050565b60006200032f838362000301565b9150826002028217905092915050565b6200034a82620000c5565b67ffffffffffffffff811115620003665762000365620000d0565b5b6200037282546200012e565b6200037f828285620002a4565b600060209050601f831160018114620003b75760008415620003a2578287015190505b620003ae858262000321565b8655506200041e565b601f198416620003c78662000163565b60005b82811015620003f157848901518255600182019150602085019450602081019050620003ca565b868310156200041157848901516200040d601f89168262000301565b8355505b6001600288020188555050505b505050505050565b600080fd5b600073ffffffffffffffffffffffffffffffffffffffff82169050919050565b600062000458826200042b565b9050919050565b6200046a816200044b565b81146200047657600080fd5b50565b6000815190506200048a816200045f565b92915050565b600060208284031215620004a957620004a862000426565b5b6000620004b98482850162000479565b91505092915050565b61156880620004d26000396000f3fe608060405234801561001057600080fd5b506004361061004c5760003560e01c806306fdde031461005157806339a439b21461006f578063bbe995071461008b578063c4290b1a146100be575b600080fd5b6100596100ef565b6040516100669190610a43565b60405180910390f35b61008960048036038101906100849190610bae565b610181565b005b6100a560048036038101906100a09190610c55565b61035b565b6040516100b59493929190610cd0565b60405180910390f35b6100d860048036038101906100d39190610d23565b6104b1565b6040516100e6929190610e6d565b60405180910390f35b6060600180546100fe90610ed3565b80601f016020809104026020016040519081016040528092919081815260200182805461012a90610ed3565b80156101775780601f1061014c57610100808354040283529160200191610177565b820191906000526020600020905b81548152906001019060200180831161015a57829003601f168201915b5050505050905090565b60008054906101000a900473ffffffffffffffffffffffffffffffffffffffff1673ffffffffffffffffffffffffffffffffffffffff163373ffffffffffffffffffffffffffffffffffffffff161461020f576040517f08c379a000000000000000000000000000000000000000000000000000000000815260040161020690610f76565b60405180910390fd5b600061021a83610972565b90506000429050816002600001819055506000801b60068660405161023f9190610fd2565b908152602001604051809103902060000154036102a3576040518060400160405280601081526020017f4265666f7265206578697374656e6365000000000000000000000000000000008152506002600101908161029d9190611195565b506102d7565b6006856040516102b39190610fd2565b9081526020016040518091039020600201600260010190816102d59190611292565b505b826002800190816102e89190611195565b508060026003018190555060026006866040516103059190610fd2565b908152602001604051809103902060008201548160000155600182018160010190816103319190611390565b50600282018160020190816103469190611390565b50600382015481600301559050505050505050565b60068180516020810182018051848252602083016020850120818352809550505050505060009150905080600001549080600101805461039a90610ed3565b80601f01602080910402602001604051908101604052809291908181526020018280546103c690610ed3565b80156104135780601f106103e857610100808354040283529160200191610413565b820191906000526020600020905b8154815290600101906020018083116103f657829003601f168201915b50505050509080600201805461042890610ed3565b80601f016020809104026020016040519081016040528092919081815260200182805461045490610ed3565b80156104a15780601f10610476576101008083540402835291602001916104a1565b820191906000526020600020905b81548152906001019060200180831161048457829003601f168201915b5050505050908060030154905084565b60606104bb610988565b6060600060405180608001604052806000801b8152602001604051806020016040528060008152508152602001604051806020016040528060008152508152602001600081525090506000801b6006876040516105189190610fd2565b9081526020016040518091039020600001540361055757604051806060016040528060408152602001611479604091399150818193509350505061096b565b60006006876040516105699190610fd2565b9081526020016040518091039020600001549050600061058887610972565b9050808203610780576040518060600160405280603181526020016114b960319139935060008054906101000a900473ffffffffffffffffffffffffffffffffffffffff1673ffffffffffffffffffffffffffffffffffffffff163373ffffffffffffffffffffffffffffffffffffffff160361077157836006896040516106109190610fd2565b9081526020016040518091039020806040518060800160405290816000820154815260200160018201805461064490610ed3565b80601f016020809104026020016040519081016040528092919081815260200182805461067090610ed3565b80156106bd5780601f10610692576101008083540402835291602001916106bd565b820191906000526020600020905b8154815290600101906020018083116106a057829003601f168201915b505050505081526020016002820180546106d690610ed3565b80601f016020809104026020016040519081016040528092919081815260200182805461070290610ed3565b801561074f5780601f106107245761010080835404028352916020019161074f565b820191906000526020600020905b81548152906001019060200180831161073257829003601f168201915b505050505081526020016003820154815250509050955095505050505061096b565b8383955095505050505061096b565b6040518060800160405280604981526020016114ea60499139935060008054906101000a900473ffffffffffffffffffffffffffffffffffffffff1673ffffffffffffffffffffffffffffffffffffffff163373ffffffffffffffffffffffffffffffffffffffff160361096057836006896040516107ff9190610fd2565b9081526020016040518091039020806040518060800160405290816000820154815260200160018201805461083390610ed3565b80601f016020809104026020016040519081016040528092919081815260200182805461085f90610ed3565b80156108ac5780601f10610881576101008083540402835291602001916108ac565b820191906000526020600020905b81548152906001019060200180831161088f57829003601f168201915b505050505081526020016002820180546108c590610ed3565b80601f01602080910402602001604051908101604052809291908181526020018280546108f190610ed3565b801561093e5780601f106109135761010080835404028352916020019161093e565b820191906000526020600020905b81548152906001019060200180831161092157829003601f168201915b505050505081526020016003820154815250509050955095505050505061096b565b838395509550505050505b9250929050565b6000808280519060200120905080915050919050565b6040518060800160405280600080191681526020016060815260200160608152602001600081525090565b600081519050919050565b600082825260208201905092915050565b60005b838110156109ed5780820151818401526020810190506109d2565b60008484015250505050565b6000601f19601f8301169050919050565b6000610a15826109b3565b610a1f81856109be565b9350610a2f8185602086016109cf565b610a38816109f9565b840191505092915050565b60006020820190508181036000830152610a5d8184610a0a565b905092915050565b6000604051905090565b600080fd5b600080fd5b600080fd5b600080fd5b7f4e487b7100000000000000000000000000000000000000000000000000000000600052604160045260246000fd5b610abb826109f9565b810181811067ffffffffffffffff82111715610ada57610ad9610a83565b5b80604052505050565b6000610aed610a65565b9050610af98282610ab2565b919050565b600067ffffffffffffffff821115610b1957610b18610a83565b5b610b22826109f9565b9050602081019050919050565b82818337600083830152505050565b6000610b51610b4c84610afe565b610ae3565b905082815260208101848484011115610b6d57610b6c610a7e565b5b610b78848285610b2f565b509392505050565b600082601f830112610b9557610b94610a79565b5b8135610ba5848260208601610b3e565b91505092915050565b600080600060608486031215610bc757610bc6610a6f565b5b600084013567ffffffffffffffff811115610be557610be4610a74565b5b610bf186828701610b80565b935050602084013567ffffffffffffffff811115610c1257610c11610a74565b5b610c1e86828701610b80565b925050604084013567ffffffffffffffff811115610c3f57610c3e610a74565b5b610c4b86828701610b80565b9150509250925092565b600060208284031215610c6b57610c6a610a6f565b5b600082013567ffffffffffffffff811115610c8957610c88610a74565b5b610c9584828501610b80565b91505092915050565b6000819050919050565b610cb181610c9e565b82525050565b6000819050919050565b610cca81610cb7565b82525050565b6000608082019050610ce56000830187610ca8565b8181036020830152610cf78186610a0a565b90508181036040830152610d0b8185610a0a565b9050610d1a6060830184610cc1565b95945050505050565b60008060408385031215610d3a57610d39610a6f565b5b600083013567ffffffffffffffff811115610d5857610d57610a74565b5b610d6485828601610b80565b925050602083013567ffffffffffffffff811115610d8557610d84610a74565b5b610d9185828601610b80565b9150509250929050565b610da481610c9e565b82525050565b600082825260208201905092915050565b6000610dc6826109b3565b610dd08185610daa565b9350610de08185602086016109cf565b610de9816109f9565b840191505092915050565b610dfd81610cb7565b82525050565b6000608083016000830151610e1b6000860182610d9b565b5060208301518482036020860152610e338282610dbb565b91505060408301518482036040860152610e4d8282610dbb565b9150506060830151610e626060860182610df4565b508091505092915050565b60006040820190508181036000830152610e878185610a0a565b90508181036020830152610e9b8184610e03565b90509392505050565b7f4e487b7100000000000000000000000000000000000000000000000000000000600052602260045260246000fd5b60006002820490506001821680610eeb57607f821691505b602082108103610efe57610efd610ea4565b5b50919050565b7f796f7572206164647265737320646f6573656e2774206861766520616363657360008201527f7320746f20757064617465207468652044617461000000000000000000000000602082015250565b6000610f606034836109be565b9150610f6b82610f04565b604082019050919050565b60006020820190508181036000830152610f8f81610f53565b9050919050565b600081905092915050565b6000610fac826109b3565b610fb68185610f96565b9350610fc68185602086016109cf565b80840191505092915050565b6000610fde8284610fa1565b915081905092915050565b60008190508160005260206000209050919050565b60006020601f8301049050919050565b600082821b905092915050565b60006008830261104b7fffffffffffffffffffffffffffffffffffffffffffffffffffffffffffffffff8261100e565b611055868361100e565b95508019841693508086168417925050509392505050565b6000819050919050565b600061109261108d61108884610cb7565b61106d565b610cb7565b9050919050565b6000819050919050565b6110ac83611077565b6110c06110b882611099565b84845461101b565b825550505050565b600090565b6110d56110c8565b6110e08184846110a3565b505050565b5b81811015611104576110f96000826110cd565b6001810190506110e6565b5050565b601f8211156111495761111a81610fe9565b61112384610ffe565b81016020851015611132578190505b61114661113e85610ffe565b8301826110e5565b50505b505050565b600082821c905092915050565b600061116c6000198460080261114e565b1980831691505092915050565b6000611185838361115b565b9150826002028217905092915050565b61119e826109b3565b67ffffffffffffffff8111156111b7576111b6610a83565b5b6111c18254610ed3565b6111cc828285611108565b600060209050601f8311600181146111ff57600084156111ed578287015190505b6111f78582611179565b86555061125f565b601f19841661120d86610fe9565b60005b8281101561123557848901518255600182019150602085019450602081019050611210565b86831015611252578489015161124e601f89168261115b565b8355505b6001600288020188555050505b505050505050565b60008154905061127681610ed3565b9050919050565b60008190508160005260206000209050919050565b8181036112a0575050611378565b6112a982611267565b67ffffffffffffffff8111156112c2576112c1610a83565b5b6112cc8254610ed3565b6112d7828285611108565b6000601f83116001811461130657600084156112f4578287015490505b6112fe8582611179565b865550611371565b601f1984166113148761127d565b965061131f86610fe9565b60005b8281101561134757848901548255600182019150600185019450602081019050611322565b868310156113645784890154611360601f89168261115b565b8355505b6001600288020188555050505b5050505050505b565b60008154905061138981610ed3565b9050919050565b81810361139e575050611476565b6113a78261137a565b67ffffffffffffffff8111156113c0576113bf610a83565b5b6113ca8254610ed3565b6113d5828285611108565b6000601f83116001811461140457600084156113f2578287015490505b6113fc8582611179565b86555061146f565b601f19841661141287610fe9565b965061141d86610fe9565b60005b8281101561144557848901548255600182019150600185019450602081019050611420565b86831015611462578489015461145e601f89168261115b565b8355505b6001600288020188555050505b5050505050505b56fe546869732055524c20697320696e76616c69642c706c6561736520636865636b207468652075706c6f616465642066696c6520616e642074727920616761696e746869732044617461206861736e2774206265656e206d6f6469666965642066726f6d206c61737420757064617465202054686973204461746120686173206265656e206d6f6469666965642c206974277320646966666572656e742066726f6d206c6173742076657273696f6e2073746f7265642021212020a26469706673582212205247ed6b9d7cc6c27ea1a597e351382c04d0c698644d4bf7aafbcd153f7af02e64736f6c63430008130033",
  "linkReferences": {},
  "deployedLinkReferences": {}
}