{
  "_format": "hh-sol-artifact-1",
  "contractName": "SecureLedger",
  "sourceName": "contracts/SecureLedger.sol",
  "abi": [
    {
      "inputs": [],
      "name": "InvalidInitialization",
      "type": "error"
    },
    {
      "inputs": [],
      "name": "NotInitializing",
      "type": "error"
    },
    {
      "inputs": [
        {
          "internalType": "address",
          "name": "owner",
          "type": "address"
        }
      ],
      "name": "OwnableInvalidOwner",
      "type": "error"
    },
    {
      "inputs": [
        {
          "internalType": "address",
          "name": "account",
          "type": "address"
        }
      ],
      "name": "OwnableUnauthorizedAccount",
      "type": "error"
    },
    {
      "anonymous": false,
      "inputs": [
        {
          "indexed": false,
          "internalType": "uint64",
          "name": "version",
          "type": "uint64"
        }
      ],
      "name": "Initialized",
      "type": "event"
    },
    {
      "anonymous": false,
      "inputs": [
        {
          "indexed": true,
          "internalType": "address",
          "name": "previousOwner",
          "type": "address"
        },
        {
          "indexed": true,
          "internalType": "address",
          "name": "newOwner",
          "type": "address"
        }
      ],
      "name": "OwnershipTransferred",
      "type": "event"
    },
    {
      "inputs": [
        {
          "internalType": "string",
          "name": "",
          "type": "string"
        }
      ],
      "name": "FileHash",
      "outputs": [
        {
          "internalType": "bytes32",
          "name": "Hash",
          "type": "bytes32"
        },
        {
          "internalType": "string",
          "name": "previous_commit",
          "type": "string"
        },
        {
          "internalType": "string",
          "name": "current_commit",
          "type": "string"
        },
        {
          "internalType": "uint256",
          "name": "timestamp",
          "type": "uint256"
        }
      ],
      "stateMutability": "view",
      "type": "function"
    },
    {
      "inputs": [
        {
          "internalType": "string",
          "name": "_url",
          "type": "string"
        },
        {
          "internalType": "string",
          "name": "_newContent",
          "type": "string"
        }
      ],
      "name": "checkDataIntegrity",
      "outputs": [
        {
          "internalType": "string",
          "name": "",
          "type": "string"
        },
        {
          "components": [
            {
              "internalType": "bytes32",
              "name": "Hash",
              "type": "bytes32"
            },
            {
              "internalType": "string",
              "name": "previous_commit",
              "type": "string"
            },
            {
              "internalType": "string",
              "name": "current_commit",
              "type": "string"
            },
            {
              "internalType": "uint256",
              "name": "timestamp",
              "type": "uint256"
            }
          ],
          "internalType": "struct SecureLedger.Details",
          "name": "",
          "type": "tuple"
        }
      ],
      "stateMutability": "view",
      "type": "function"
    },
    {
      "inputs": [
        {
          "internalType": "address",
          "name": "initialOwner",
          "type": "address"
        }
      ],
      "name": "initialize",
      "outputs": [],
      "stateMutability": "nonpayable",
      "type": "function"
    },
    {
      "inputs": [],
      "name": "owner",
      "outputs": [
        {
          "internalType": "address",
          "name": "",
          "type": "address"
        }
      ],
      "stateMutability": "view",
      "type": "function"
    },
    {
      "inputs": [],
      "name": "renounceOwnership",
      "outputs": [],
      "stateMutability": "nonpayable",
      "type": "function"
    },
    {
      "inputs": [
        {
          "internalType": "address",
          "name": "newOwner",
          "type": "address"
        }
      ],
      "name": "transferOwnership",
      "outputs": [],
      "stateMutability": "nonpayable",
      "type": "function"
    },
    {
      "inputs": [
        {
          "internalType": "string",
          "name": "_url",
          "type": "string"
        },
        {
          "internalType": "string",
          "name": "_content",
          "type": "string"
        },
        {
          "internalType": "string",
          "name": "_commit",
          "type": "string"
        }
      ],
      "name": "updateFileHash",
      "outputs": [],
      "stateMutability": "nonpayable",
      "type": "function"
    }
  ],
  "bytecode": "0x608060405234801561001057600080fd5b50611b96806100206000396000f3fe608060405234801561001057600080fd5b506004361061007d5760003560e01c8063bbe995071161005b578063bbe99507146100c6578063c4290b1a146100f9578063c4d66de81461012a578063f2fde38b146101465761007d565b806339a439b214610082578063715018a61461009e5780638da5cb5b146100a8575b600080fd5b61009c6004803603810190610097919061103e565b610162565b005b6100a661033b565b005b6100b061034f565b6040516100bd9190611126565b60405180910390f35b6100e060048036038101906100db9190611141565b610387565b6040516100f0949392919061123b565b60405180910390f35b610113600480360381019061010e919061128e565b6104dd565b6040516101219291906113d8565b60405180910390f35b610144600480360381019061013f919061143b565b61099e565b005b610160600480360381019061015b919061143b565b610b6d565b005b60008054906101000a900473ffffffffffffffffffffffffffffffffffffffff1673ffffffffffffffffffffffffffffffffffffffff163373ffffffffffffffffffffffffffffffffffffffff16146101f0576040517f08c379a00000000000000000000000000000000000000000000000000000000081526004016101e7906114da565b60405180910390fd5b60006101fb83610bf3565b90506000429050816001600001819055506000801b6005866040516102209190611536565b90815260200160405180910390206000015403610283576040518060400160405280601081526020017f4265666f7265206578697374656e63650000000000000000000000000000000081525060018001908161027d9190611759565b506102b6565b6005856040516102939190611536565b90815260200160405180910390206002016001800190816102b49190611856565b505b82600160020190816102c89190611759565b508060016003018190555060016005866040516102e59190611536565b908152602001604051809103902060008201548160000155600182018160010190816103119190611954565b50600282018160020190816103269190611954565b50600382015481600301559050505050505050565b610343610c09565b61034d6000610c90565b565b60008061035a610d67565b90508060000160009054906101000a900473ffffffffffffffffffffffffffffffffffffffff1691505090565b6005818051602081018201805184825260208301602085012081835280955050505050506000915090508060000154908060010180546103c69061157c565b80601f01602080910402602001604051908101604052809291908181526020018280546103f29061157c565b801561043f5780601f106104145761010080835404028352916020019161043f565b820191906000526020600020905b81548152906001019060200180831161042257829003601f168201915b5050505050908060020180546104549061157c565b80601f01602080910402602001604051908101604052809291908181526020018280546104809061157c565b80156104cd5780601f106104a2576101008083540402835291602001916104cd565b820191906000526020600020905b8154815290600101906020018083116104b057829003601f168201915b5050505050908060030154905084565b60606104e7610eb9565b6060600060405180608001604052806000801b8152602001604051806020016040528060008152508152602001604051806020016040528060008152508152602001600081525090506000801b6005876040516105449190611536565b9081526020016040518091039020600001540361058357604051806060016040528060408152602001611aa76040913991508181935093505050610997565b60006005876040516105959190611536565b908152602001604051809103902060000154905060006105b487610bf3565b90508082036107ac57604051806060016040528060318152602001611ae760319139935060008054906101000a900473ffffffffffffffffffffffffffffffffffffffff1673ffffffffffffffffffffffffffffffffffffffff163373ffffffffffffffffffffffffffffffffffffffff160361079d578360058960405161063c9190611536565b908152602001604051809103902080604051806080016040529081600082015481526020016001820180546106709061157c565b80601f016020809104026020016040519081016040528092919081815260200182805461069c9061157c565b80156106e95780601f106106be576101008083540402835291602001916106e9565b820191906000526020600020905b8154815290600101906020018083116106cc57829003601f168201915b505050505081526020016002820180546107029061157c565b80601f016020809104026020016040519081016040528092919081815260200182805461072e9061157c565b801561077b5780601f106107505761010080835404028352916020019161077b565b820191906000526020600020905b81548152906001019060200180831161075e57829003601f168201915b5050505050815260200160038201548152505090509550955050505050610997565b83839550955050505050610997565b604051806080016040528060498152602001611b1860499139935060008054906101000a900473ffffffffffffffffffffffffffffffffffffffff1673ffffffffffffffffffffffffffffffffffffffff163373ffffffffffffffffffffffffffffffffffffffff160361098c578360058960405161082b9190611536565b9081526020016040518091039020806040518060800160405290816000820154815260200160018201805461085f9061157c565b80601f016020809104026020016040519081016040528092919081815260200182805461088b9061157c565b80156108d85780601f106108ad576101008083540402835291602001916108d8565b820191906000526020600020905b8154815290600101906020018083116108bb57829003601f168201915b505050505081526020016002820180546108f19061157c565b80601f016020809104026020016040519081016040528092919081815260200182805461091d9061157c565b801561096a5780601f1061093f5761010080835404028352916020019161096a565b820191906000526020600020905b81548152906001019060200180831161094d57829003601f168201915b5050505050815260200160038201548152505090509550955050505050610997565b838395509550505050505b9250929050565b60006109a8610d8f565b905060008160000160089054906101000a900460ff1615905060008260000160009054906101000a900467ffffffffffffffff1690506000808267ffffffffffffffff161480156109f65750825b9050600060018367ffffffffffffffff16148015610a2b575060003073ffffffffffffffffffffffffffffffffffffffff163b145b905081158015610a39575080155b15610a70576040517ff92ee8a900000000000000000000000000000000000000000000000000000000815260040160405180910390fd5b60018560000160006101000a81548167ffffffffffffffff021916908367ffffffffffffffff1602179055508315610ac05760018560000160086101000a81548160ff0219169083151502179055505b610ac986610db7565b856000806101000a81548173ffffffffffffffffffffffffffffffffffffffff021916908373ffffffffffffffffffffffffffffffffffffffff1602179055508315610b655760008560000160086101000a81548160ff0219169083151502179055507fc7f505b2f371ae2175ee4913f4499e1f2633a7b5936321eed1cdaeb6115181d26001604051610b5c9190611a8b565b60405180910390a15b505050505050565b610b75610c09565b600073ffffffffffffffffffffffffffffffffffffffff168173ffffffffffffffffffffffffffffffffffffffff1603610be75760006040517f1e4fbdf7000000000000000000000000000000000000000000000000000000008152600401610bde9190611126565b60405180910390fd5b610bf081610c90565b50565b6000808280519060200120905080915050919050565b610c11610dcb565b73ffffffffffffffffffffffffffffffffffffffff16610c2f61034f565b73ffffffffffffffffffffffffffffffffffffffff1614610c8e57610c52610dcb565b6040517f118cdaa7000000000000000000000000000000000000000000000000000000008152600401610c859190611126565b60405180910390fd5b565b6000610c9a610d67565b905060008160000160009054906101000a900473ffffffffffffffffffffffffffffffffffffffff169050828260000160006101000a81548173ffffffffffffffffffffffffffffffffffffffff021916908373ffffffffffffffffffffffffffffffffffffffff1602179055508273ffffffffffffffffffffffffffffffffffffffff168173ffffffffffffffffffffffffffffffffffffffff167f8be0079c531659141344cd1fd0a4f28419497f9722a3daafe3b4186f6b6457e060405160405180910390a3505050565b60007f9016d09d72d40fdae2fd8ceac6b6234c7706214fd39c1cd1e609a0528c199300905090565b60007ff0c57e16840df040f15088dc2f81fe391c3923bec73e23a9662efc9c229c6a00905090565b610dbf610dd3565b610dc881610e13565b50565b600033905090565b610ddb610e99565b610e11576040517fd7e6bcf800000000000000000000000000000000000000000000000000000000815260040160405180910390fd5b565b610e1b610dd3565b600073ffffffffffffffffffffffffffffffffffffffff168173ffffffffffffffffffffffffffffffffffffffff1603610e8d5760006040517f1e4fbdf7000000000000000000000000000000000000000000000000000000008152600401610e849190611126565b60405180910390fd5b610e9681610c90565b50565b6000610ea3610d8f565b60000160089054906101000a900460ff16905090565b6040518060800160405280600080191681526020016060815260200160608152602001600081525090565b6000604051905090565b600080fd5b600080fd5b600080fd5b600080fd5b6000601f19601f8301169050919050565b7f4e487b7100000000000000000000000000000000000000000000000000000000600052604160045260246000fd5b610f4b82610f02565b810181811067ffffffffffffffff82111715610f6a57610f69610f13565b5b80604052505050565b6000610f7d610ee4565b9050610f898282610f42565b919050565b600067ffffffffffffffff821115610fa957610fa8610f13565b5b610fb282610f02565b9050602081019050919050565b82818337600083830152505050565b6000610fe1610fdc84610f8e565b610f73565b905082815260208101848484011115610ffd57610ffc610efd565b5b611008848285610fbf565b509392505050565b600082601f83011261102557611024610ef8565b5b8135611035848260208601610fce565b91505092915050565b60008060006060848603121561105757611056610eee565b5b600084013567ffffffffffffffff81111561107557611074610ef3565b5b61108186828701611010565b935050602084013567ffffffffffffffff8111156110a2576110a1610ef3565b5b6110ae86828701611010565b925050604084013567ffffffffffffffff8111156110cf576110ce610ef3565b5b6110db86828701611010565b9150509250925092565b600073ffffffffffffffffffffffffffffffffffffffff82169050919050565b6000611110826110e5565b9050919050565b61112081611105565b82525050565b600060208201905061113b6000830184611117565b92915050565b60006020828403121561115757611156610eee565b5b600082013567ffffffffffffffff81111561117557611174610ef3565b5b61118184828501611010565b91505092915050565b6000819050919050565b61119d8161118a565b82525050565b600081519050919050565b600082825260208201905092915050565b60005b838110156111dd5780820151818401526020810190506111c2565b60008484015250505050565b60006111f4826111a3565b6111fe81856111ae565b935061120e8185602086016111bf565b61121781610f02565b840191505092915050565b6000819050919050565b61123581611222565b82525050565b60006080820190506112506000830187611194565b818103602083015261126281866111e9565b9050818103604083015261127681856111e9565b9050611285606083018461122c565b95945050505050565b600080604083850312156112a5576112a4610eee565b5b600083013567ffffffffffffffff8111156112c3576112c2610ef3565b5b6112cf85828601611010565b925050602083013567ffffffffffffffff8111156112f0576112ef610ef3565b5b6112fc85828601611010565b9150509250929050565b61130f8161118a565b82525050565b600082825260208201905092915050565b6000611331826111a3565b61133b8185611315565b935061134b8185602086016111bf565b61135481610f02565b840191505092915050565b61136881611222565b82525050565b60006080830160008301516113866000860182611306565b506020830151848203602086015261139e8282611326565b915050604083015184820360408601526113b88282611326565b91505060608301516113cd606086018261135f565b508091505092915050565b600060408201905081810360008301526113f281856111e9565b90508181036020830152611406818461136e565b90509392505050565b61141881611105565b811461142357600080fd5b50565b6000813590506114358161140f565b92915050565b60006020828403121561145157611450610eee565b5b600061145f84828501611426565b91505092915050565b7f796f7572206164647265737320646f6573656e2774206861766520616363657360008201527f7320746f20757064617465207468652044617461000000000000000000000000602082015250565b60006114c46034836111ae565b91506114cf82611468565b604082019050919050565b600060208201905081810360008301526114f3816114b7565b9050919050565b600081905092915050565b6000611510826111a3565b61151a81856114fa565b935061152a8185602086016111bf565b80840191505092915050565b60006115428284611505565b915081905092915050565b7f4e487b7100000000000000000000000000000000000000000000000000000000600052602260045260246000fd5b6000600282049050600182168061159457607f821691505b6020821081036115a7576115a661154d565b5b50919050565b60008190508160005260206000209050919050565b60006020601f8301049050919050565b600082821b905092915050565b60006008830261160f7fffffffffffffffffffffffffffffffffffffffffffffffffffffffffffffffff826115d2565b61161986836115d2565b95508019841693508086168417925050509392505050565b6000819050919050565b600061165661165161164c84611222565b611631565b611222565b9050919050565b6000819050919050565b6116708361163b565b61168461167c8261165d565b8484546115df565b825550505050565b600090565b61169961168c565b6116a4818484611667565b505050565b5b818110156116c8576116bd600082611691565b6001810190506116aa565b5050565b601f82111561170d576116de816115ad565b6116e7846115c2565b810160208510156116f6578190505b61170a611702856115c2565b8301826116a9565b50505b505050565b600082821c905092915050565b600061173060001984600802611712565b1980831691505092915050565b6000611749838361171f565b9150826002028217905092915050565b611762826111a3565b67ffffffffffffffff81111561177b5761177a610f13565b5b611785825461157c565b6117908282856116cc565b600060209050601f8311600181146117c357600084156117b1578287015190505b6117bb858261173d565b865550611823565b601f1984166117d1866115ad565b60005b828110156117f9578489015182556001820191506020850194506020810190506117d4565b868310156118165784890151611812601f89168261171f565b8355505b6001600288020188555050505b505050505050565b60008154905061183a8161157c565b9050919050565b60008190508160005260206000209050919050565b81810361186457505061193c565b61186d8261182b565b67ffffffffffffffff81111561188657611885610f13565b5b611890825461157c565b61189b8282856116cc565b6000601f8311600181146118ca57600084156118b8578287015490505b6118c2858261173d565b865550611935565b601f1984166118d887611841565b96506118e3866115ad565b60005b8281101561190b578489015482556001820191506001850194506020810190506118e6565b868310156119285784890154611924601f89168261171f565b8355505b6001600288020188555050505b5050505050505b565b60008154905061194d8161157c565b9050919050565b818103611962575050611a3a565b61196b8261193e565b67ffffffffffffffff81111561198457611983610f13565b5b61198e825461157c565b6119998282856116cc565b6000601f8311600181146119c857600084156119b6578287015490505b6119c0858261173d565b865550611a33565b601f1984166119d6876115ad565b96506119e1866115ad565b60005b82811015611a09578489015482556001820191506001850194506020810190506119e4565b86831015611a265784890154611a22601f89168261171f565b8355505b6001600288020188555050505b5050505050505b565b6000819050919050565b600067ffffffffffffffff82169050919050565b6000611a75611a70611a6b84611a3c565b611631565b611a46565b9050919050565b611a8581611a5a565b82525050565b6000602082019050611aa06000830184611a7c565b9291505056fe546869732055524c20697320696e76616c69642c706c6561736520636865636b207468652075706c6f616465642066696c6520616e642074727920616761696e746869732044617461206861736e2774206265656e206d6f6469666965642066726f6d206c61737420757064617465202054686973204461746120686173206265656e206d6f6469666965642c206974277320646966666572656e742066726f6d206c6173742076657273696f6e2073746f7265642021212020a264697066735822122088a3ae3e1d910ec436e2f185ec1b9f1c245c5730ee90c698e8117ae6560e616164736f6c63430008180033",
  "linkReferences": {},
  "deployedLinkReferences": {}
}