{
  "_format": "hh-sol-artifact-1",
  "contractName": "SecureLedger",
  "sourceName": "contracts/SecureLedger.sol",
  "abi": [
    {
      "inputs": [],
      "stateMutability": "nonpayable",
      "type": "constructor"
    },
    {
      "inputs": [],
      "name": "InvalidInitialization",
      "type": "error"
    },
    {
      "inputs": [],
      "name": "NotInitializing",
      "type": "error"
    },
    {
      "inputs": [
        {
          "internalType": "address",
          "name": "owner",
          "type": "address"
        }
      ],
      "name": "OwnableInvalidOwner",
      "type": "error"
    },
    {
      "inputs": [
        {
          "internalType": "address",
          "name": "account",
          "type": "address"
        }
      ],
      "name": "OwnableUnauthorizedAccount",
      "type": "error"
    },
    {
      "anonymous": false,
      "inputs": [
        {
          "indexed": true,
          "internalType": "address",
          "name": "_AuthorAddress",
          "type": "address"
        },
        {
          "indexed": false,
          "internalType": "string",
          "name": "dataName",
          "type": "string"
        },
        {
          "indexed": false,
          "internalType": "string",
          "name": "commit",
          "type": "string"
        }
      ],
      "name": "DataUpdated",
      "type": "event"
    },
    {
      "anonymous": false,
      "inputs": [
        {
          "indexed": true,
          "internalType": "address",
          "name": "_AuthorAddress",
          "type": "address"
        },
        {
          "indexed": false,
          "internalType": "string",
          "name": "dataName",
          "type": "string"
        }
      ],
      "name": "DataUploaded",
      "type": "event"
    },
    {
      "anonymous": false,
      "inputs": [
        {
          "indexed": false,
          "internalType": "uint64",
          "name": "version",
          "type": "uint64"
        }
      ],
      "name": "Initialized",
      "type": "event"
    },
    {
      "anonymous": false,
      "inputs": [
        {
          "indexed": true,
          "internalType": "address",
          "name": "previousOwner",
          "type": "address"
        },
        {
          "indexed": true,
          "internalType": "address",
          "name": "newOwner",
          "type": "address"
        }
      ],
      "name": "OwnershipTransferred",
      "type": "event"
    },
    {
      "inputs": [
        {
          "internalType": "address",
          "name": "_author",
          "type": "address"
        },
        {
          "internalType": "string",
          "name": "_name",
          "type": "string"
        },
        {
          "internalType": "string",
          "name": "_newContent",
          "type": "string"
        }
      ],
      "name": "checkDataIntegrity",
      "outputs": [
        {
          "internalType": "string",
          "name": "",
          "type": "string"
        },
        {
          "components": [
            {
              "internalType": "bytes32",
              "name": "Hash",
              "type": "bytes32"
            },
            {
              "internalType": "string[]",
              "name": "Commits",
              "type": "string[]"
            },
            {
              "internalType": "uint256[]",
              "name": "timestamp",
              "type": "uint256[]"
            }
          ],
          "internalType": "struct SecureLedger.Details",
          "name": "",
          "type": "tuple"
        }
      ],
      "stateMutability": "view",
      "type": "function"
    },
    {
      "inputs": [],
      "name": "getHistory",
      "outputs": [
        {
          "components": [
            {
              "internalType": "string",
              "name": "dataName",
              "type": "string"
            },
            {
              "internalType": "uint256",
              "name": "timestamp",
              "type": "uint256"
            }
          ],
          "internalType": "struct SecureLedger.DataUploadInfo[]",
          "name": "",
          "type": "tuple[]"
        }
      ],
      "stateMutability": "view",
      "type": "function"
    },
    {
      "inputs": [
        {
          "internalType": "address",
          "name": "initialOwner",
          "type": "address"
        }
      ],
      "name": "initialize",
      "outputs": [],
      "stateMutability": "nonpayable",
      "type": "function"
    },
    {
      "inputs": [],
      "name": "owner",
      "outputs": [
        {
          "internalType": "address",
          "name": "",
          "type": "address"
        }
      ],
      "stateMutability": "view",
      "type": "function"
    },
    {
      "inputs": [],
      "name": "renounceOwnership",
      "outputs": [],
      "stateMutability": "nonpayable",
      "type": "function"
    },
    {
      "inputs": [
        {
          "internalType": "address",
          "name": "newOwner",
          "type": "address"
        }
      ],
      "name": "transferOwnership",
      "outputs": [],
      "stateMutability": "nonpayable",
      "type": "function"
    },
    {
      "inputs": [
        {
          "internalType": "string",
          "name": "_name",
          "type": "string"
        },
        {
          "internalType": "string",
          "name": "_content",
          "type": "string"
        },
        {
          "internalType": "string",
          "name": "_commit",
          "type": "string"
        }
      ],
      "name": "updateData",
      "outputs": [],
      "stateMutability": "nonpayable",
      "type": "function"
    },
    {
      "inputs": [
        {
          "internalType": "string",
          "name": "_name",
          "type": "string"
        },
        {
          "internalType": "string",
          "name": "_content",
          "type": "string"
        },
        {
          "internalType": "string",
          "name": "_commit",
          "type": "string"
        }
      ],
      "name": "uploadData",
      "outputs": [],
      "stateMutability": "nonpayable",
      "type": "function"
    }
  ],
  "bytecode": "0x60806040523480156200001157600080fd5b50620000226200002860201b60201c565b6200019c565b60006200003a6200013260201b60201c565b90508060000160089054906101000a900460ff161562000086576040517ff92ee8a900000000000000000000000000000000000000000000000000000000815260040160405180910390fd5b67ffffffffffffffff80168160000160009054906101000a900467ffffffffffffffff1667ffffffffffffffff16146200012f5767ffffffffffffffff8160000160006101000a81548167ffffffffffffffff021916908367ffffffffffffffff1602179055507fc7f505b2f371ae2175ee4913f4499e1f2633a7b5936321eed1cdaeb6115181d267ffffffffffffffff6040516200012691906200017f565b60405180910390a15b50565b60007ff0c57e16840df040f15088dc2f81fe391c3923bec73e23a9662efc9c229c6a00905090565b600067ffffffffffffffff82169050919050565b62000179816200015a565b82525050565b60006020820190506200019660008301846200016e565b92915050565b61215680620001ac6000396000f3fe608060405234801561001057600080fd5b50600436106100885760003560e01c8063aa15efc81161005b578063aa15efc8146100ed578063c4d66de81461010b578063ce71167a14610127578063f2fde38b1461015857610088565b806355995dba1461008d578063715018a6146100a957806375700b5e146100b35780638da5cb5b146100cf575b600080fd5b6100a760048036038101906100a291906112e7565b610174565b005b6100b1610385565b005b6100cd60048036038101906100c891906112e7565b610399565b005b6100d7610653565b6040516100e491906113cf565b60405180910390f35b6100f561068b565b6040516101029190611581565b60405180910390f35b610125600480360381019061012091906115cf565b610848565b005b610141600480360381019061013c91906115fc565b6109d7565b60405161014f9291906118b2565b60405180910390f35b610172600480360381019061016d91906115cf565b610ced565b005b6000801b600460003373ffffffffffffffffffffffffffffffffffffffff1673ffffffffffffffffffffffffffffffffffffffff168152602001908152602001600020846040516101c59190611925565b90815260200160405180910390206000015403610217576040517f08c379a000000000000000000000000000000000000000000000000000000000815260040161020e906119ae565b60405180910390fd5b600061022283610d73565b905060004290508160008001819055506000600101839080600181540180825580915050600190039060005260206000200160009091909190915090816102699190611bda565b5060006002018190806001815401808255809150506001900390600052602060002001600090919091909150556000600460003373ffffffffffffffffffffffffffffffffffffffff1673ffffffffffffffffffffffffffffffffffffffff168152602001908152602001600020866040516102e59190611925565b9081526020016040518091039020600082015481600001556001820181600101908054610313929190611039565b50600282018160020190805461032a929190611096565b509050503373ffffffffffffffffffffffffffffffffffffffff167f33a71a1f34ba6e443575dfe592a9e028cdb57b5c58db3be38fa1c78a05770ec68685604051610376929190611cac565b60405180910390a25050505050565b61038d610d89565b6103976000610e10565b565b60003390506000801b600460008373ffffffffffffffffffffffffffffffffffffffff1673ffffffffffffffffffffffffffffffffffffffff168152602001908152602001600020856040516103ef9190611925565b90815260200160405180910390206000015414610441576040517f08c379a000000000000000000000000000000000000000000000000000000000815260040161043890611d55565b60405180910390fd5b600061044c84610d73565b90506000429050600060405180604001604052808881526020018381525090508260008001819055506000600101859080600181540180825580915050600190039060005260206000200160009091909190915090816104ac9190611bda565b5060006002018290806001815401808255809150506001900390600052602060002001600090919091909150556000600460008673ffffffffffffffffffffffffffffffffffffffff1673ffffffffffffffffffffffffffffffffffffffff168152602001908152602001600020886040516105289190611925565b9081526020016040518091039020600082015481600001556001820181600101908054610556929190611039565b50600282018160020190805461056d929190611096565b50905050600360008573ffffffffffffffffffffffffffffffffffffffff1673ffffffffffffffffffffffffffffffffffffffff16815260200190815260200160002081908060018154018082558091505060019003906000526020600020906002020160009091909190915060008201518160000190816105ef9190611bda565b506020820151816001015550508373ffffffffffffffffffffffffffffffffffffffff167f259a579e559ab3f7888005dabd0f3b160733b0cce4bd694323f9b9303494f58e886040516106429190611d75565b60405180910390a250505050505050565b60008061065e610ee7565b90508060000160009054906101000a900473ffffffffffffffffffffffffffffffffffffffff1691505090565b60606000600360003373ffffffffffffffffffffffffffffffffffffffff1673ffffffffffffffffffffffffffffffffffffffff1681526020019081526020016000208054905003610712576040517f08c379a000000000000000000000000000000000000000000000000000000000815260040161070990611e09565b60405180910390fd5b600360003373ffffffffffffffffffffffffffffffffffffffff1673ffffffffffffffffffffffffffffffffffffffff168152602001908152602001600020805480602002602001604051908101604052809291908181526020016000905b8282101561083f57838290600052602060002090600202016040518060400160405290816000820180546107a4906119fd565b80601f01602080910402602001604051908101604052809291908181526020018280546107d0906119fd565b801561081d5780601f106107f25761010080835404028352916020019161081d565b820191906000526020600020905b81548152906001019060200180831161080057829003601f168201915b5050505050815260200160018201548152505081526020019060010190610771565b50505050905090565b6000610852610f0f565b905060008160000160089054906101000a900460ff1615905060008260000160009054906101000a900467ffffffffffffffff1690506000808267ffffffffffffffff161480156108a05750825b9050600060018367ffffffffffffffff161480156108d5575060003073ffffffffffffffffffffffffffffffffffffffff163b145b9050811580156108e3575080155b1561091a576040517ff92ee8a900000000000000000000000000000000000000000000000000000000815260040160405180910390fd5b60018560000160006101000a81548167ffffffffffffffff021916908367ffffffffffffffff160217905550831561096a5760018560000160086101000a81548160ff0219169083151502179055505b61097386610f37565b83156109cf5760008560000160086101000a81548160ff0219169083151502179055507fc7f505b2f371ae2175ee4913f4499e1f2633a7b5936321eed1cdaeb6115181d260016040516109c69190611e78565b60405180910390a15b505050505050565b60606109e16110e8565b60606000801b600460008873ffffffffffffffffffffffffffffffffffffffff1673ffffffffffffffffffffffffffffffffffffffff16815260200190815260200160002086604051610a349190611925565b90815260200160405180910390206000015403610a86576040517f08c379a0000000000000000000000000000000000000000000000000000000008152600401610a7d90611f51565b60405180910390fd5b6000600460008873ffffffffffffffffffffffffffffffffffffffff1673ffffffffffffffffffffffffffffffffffffffff16815260200190815260200160002086604051610ad59190611925565b90815260200160405180910390206000015490506000610af486610d73565b9050808203610b1d57604051806080016040528060568152602001612070605691399250610b39565b6040518060800160405280605b81526020016120c6605b913992505b82600460008a73ffffffffffffffffffffffffffffffffffffffff1673ffffffffffffffffffffffffffffffffffffffff16815260200190815260200160002088604051610b879190611925565b9081526020016040518091039020806040518060600160405290816000820154815260200160018201805480602002602001604051908101604052809291908181526020016000905b82821015610c7c578382906000526020600020018054610bef906119fd565b80601f0160208091040260200160405190810160405280929190818152602001828054610c1b906119fd565b8015610c685780601f10610c3d57610100808354040283529160200191610c68565b820191906000526020600020905b815481529060010190602001808311610c4b57829003601f168201915b505050505081526020019060010190610bd0565b50505050815260200160028201805480602002602001604051908101604052809291908181526020018280548015610cd357602002820191906000526020600020905b815481526020019060010190808311610cbf575b505050505081525050905094509450505050935093915050565b610cf5610d89565b600073ffffffffffffffffffffffffffffffffffffffff168173ffffffffffffffffffffffffffffffffffffffff1603610d675760006040517f1e4fbdf7000000000000000000000000000000000000000000000000000000008152600401610d5e91906113cf565b60405180910390fd5b610d7081610e10565b50565b6000808280519060200120905080915050919050565b610d91610f4b565b73ffffffffffffffffffffffffffffffffffffffff16610daf610653565b73ffffffffffffffffffffffffffffffffffffffff1614610e0e57610dd2610f4b565b6040517f118cdaa7000000000000000000000000000000000000000000000000000000008152600401610e0591906113cf565b60405180910390fd5b565b6000610e1a610ee7565b905060008160000160009054906101000a900473ffffffffffffffffffffffffffffffffffffffff169050828260000160006101000a81548173ffffffffffffffffffffffffffffffffffffffff021916908373ffffffffffffffffffffffffffffffffffffffff1602179055508273ffffffffffffffffffffffffffffffffffffffff168173ffffffffffffffffffffffffffffffffffffffff167f8be0079c531659141344cd1fd0a4f28419497f9722a3daafe3b4186f6b6457e060405160405180910390a3505050565b60007f9016d09d72d40fdae2fd8ceac6b6234c7706214fd39c1cd1e609a0528c199300905090565b60007ff0c57e16840df040f15088dc2f81fe391c3923bec73e23a9662efc9c229c6a00905090565b610f3f610f53565b610f4881610f93565b50565b600033905090565b610f5b611019565b610f91576040517fd7e6bcf800000000000000000000000000000000000000000000000000000000815260040160405180910390fd5b565b610f9b610f53565b600073ffffffffffffffffffffffffffffffffffffffff168173ffffffffffffffffffffffffffffffffffffffff160361100d5760006040517f1e4fbdf700000000000000000000000000000000000000000000000000000000815260040161100491906113cf565b60405180910390fd5b61101681610e10565b50565b6000611023610f0f565b60000160089054906101000a900460ff16905090565b8280548282559060005260206000209081019282156110855760005260206000209182015b8281111561108457828290816110749190611f87565b509160010191906001019061105e565b5b509050611092919061110c565b5090565b8280548282559060005260206000209081019282156110d75760005260206000209182015b828111156110d65782548255916001019190600101906110bb565b5b5090506110e49190611130565b5090565b60405180606001604052806000801916815260200160608152602001606081525090565b5b8082111561112c5760008181611123919061114d565b5060010161110d565b5090565b5b80821115611149576000816000905550600101611131565b5090565b508054611159906119fd565b6000825580601f1061116b575061118a565b601f0160209004906000526020600020908101906111899190611130565b5b50565b6000604051905090565b600080fd5b600080fd5b600080fd5b600080fd5b6000601f19601f8301169050919050565b7f4e487b7100000000000000000000000000000000000000000000000000000000600052604160045260246000fd5b6111f4826111ab565b810181811067ffffffffffffffff82111715611213576112126111bc565b5b80604052505050565b600061122661118d565b905061123282826111eb565b919050565b600067ffffffffffffffff821115611252576112516111bc565b5b61125b826111ab565b9050602081019050919050565b82818337600083830152505050565b600061128a61128584611237565b61121c565b9050828152602081018484840111156112a6576112a56111a6565b5b6112b1848285611268565b509392505050565b600082601f8301126112ce576112cd6111a1565b5b81356112de848260208601611277565b91505092915050565b600080600060608486031215611300576112ff611197565b5b600084013567ffffffffffffffff81111561131e5761131d61119c565b5b61132a868287016112b9565b935050602084013567ffffffffffffffff81111561134b5761134a61119c565b5b611357868287016112b9565b925050604084013567ffffffffffffffff8111156113785761137761119c565b5b611384868287016112b9565b9150509250925092565b600073ffffffffffffffffffffffffffffffffffffffff82169050919050565b60006113b98261138e565b9050919050565b6113c9816113ae565b82525050565b60006020820190506113e460008301846113c0565b92915050565b600081519050919050565b600082825260208201905092915050565b6000819050602082019050919050565b600081519050919050565b600082825260208201905092915050565b60005b83811015611450578082015181840152602081019050611435565b60008484015250505050565b600061146782611416565b6114718185611421565b9350611481818560208601611432565b61148a816111ab565b840191505092915050565b6000819050919050565b6114a881611495565b82525050565b600060408301600083015184820360008601526114cb828261145c565b91505060208301516114e0602086018261149f565b508091505092915050565b60006114f783836114ae565b905092915050565b6000602082019050919050565b6000611517826113ea565b61152181856113f5565b93508360208202850161153385611406565b8060005b8581101561156f578484038952815161155085826114eb565b945061155b836114ff565b925060208a01995050600181019050611537565b50829750879550505050505092915050565b6000602082019050818103600083015261159b818461150c565b905092915050565b6115ac816113ae565b81146115b757600080fd5b50565b6000813590506115c9816115a3565b92915050565b6000602082840312156115e5576115e4611197565b5b60006115f3848285016115ba565b91505092915050565b60008060006060848603121561161557611614611197565b5b6000611623868287016115ba565b935050602084013567ffffffffffffffff8111156116445761164361119c565b5b611650868287016112b9565b925050604084013567ffffffffffffffff8111156116715761167061119c565b5b61167d868287016112b9565b9150509250925092565b600082825260208201905092915050565b60006116a382611416565b6116ad8185611687565b93506116bd818560208601611432565b6116c6816111ab565b840191505092915050565b6000819050919050565b6116e4816116d1565b82525050565b600081519050919050565b600082825260208201905092915050565b6000819050602082019050919050565b6000611722838361145c565b905092915050565b6000602082019050919050565b6000611742826116ea565b61174c81856116f5565b93508360208202850161175e85611706565b8060005b8581101561179a578484038952815161177b8582611716565b94506117868361172a565b925060208a01995050600181019050611762565b50829750879550505050505092915050565b600081519050919050565b600082825260208201905092915050565b6000819050602082019050919050565b60006117e4838361149f565b60208301905092915050565b6000602082019050919050565b6000611808826117ac565b61181281856117b7565b935061181d836117c8565b8060005b8381101561184e57815161183588826117d8565b9750611840836117f0565b925050600181019050611821565b5085935050505092915050565b600060608301600083015161187360008601826116db565b506020830151848203602086015261188b8282611737565b915050604083015184820360408601526118a582826117fd565b9150508091505092915050565b600060408201905081810360008301526118cc8185611698565b905081810360208301526118e0818461185b565b90509392505050565b600081905092915050565b60006118ff82611416565b61190981856118e9565b9350611919818560208601611432565b80840191505092915050565b600061193182846118f4565b915081905092915050565b7f596f7520646f6e2774206861766520612072656769737472656420646174612060008201527f776974682074686973206e616d65202121000000000000000000000000000000602082015250565b6000611998603183611687565b91506119a38261193c565b604082019050919050565b600060208201905081810360008301526119c78161198b565b9050919050565b7f4e487b7100000000000000000000000000000000000000000000000000000000600052602260045260246000fd5b60006002820490506001821680611a1557607f821691505b602082108103611a2857611a276119ce565b5b50919050565b60008190508160005260206000209050919050565b60006020601f8301049050919050565b600082821b905092915050565b600060088302611a907fffffffffffffffffffffffffffffffffffffffffffffffffffffffffffffffff82611a53565b611a9a8683611a53565b95508019841693508086168417925050509392505050565b6000819050919050565b6000611ad7611ad2611acd84611495565b611ab2565b611495565b9050919050565b6000819050919050565b611af183611abc565b611b05611afd82611ade565b848454611a60565b825550505050565b600090565b611b1a611b0d565b611b25818484611ae8565b505050565b5b81811015611b4957611b3e600082611b12565b600181019050611b2b565b5050565b601f821115611b8e57611b5f81611a2e565b611b6884611a43565b81016020851015611b77578190505b611b8b611b8385611a43565b830182611b2a565b50505b505050565b600082821c905092915050565b6000611bb160001984600802611b93565b1980831691505092915050565b6000611bca8383611ba0565b9150826002028217905092915050565b611be382611416565b67ffffffffffffffff811115611bfc57611bfb6111bc565b5b611c0682546119fd565b611c11828285611b4d565b600060209050601f831160018114611c445760008415611c32578287015190505b611c3c8582611bbe565b865550611ca4565b601f198416611c5286611a2e565b60005b82811015611c7a57848901518255600182019150602085019450602081019050611c55565b86831015611c975784890151611c93601f891682611ba0565b8355505b6001600288020188555050505b505050505050565b60006040820190508181036000830152611cc68185611698565b90508181036020830152611cda8184611698565b90509392505050565b7f596f7520616c72656164792068617665206120646174612075706c6f6164656460008201527f20776974682074686973206e616d652000000000000000000000000000000000602082015250565b6000611d3f603083611687565b9150611d4a82611ce3565b604082019050919050565b60006020820190508181036000830152611d6e81611d32565b9050919050565b60006020820190508181036000830152611d8f8184611698565b905092915050565b7f596f75206469646e27742075706c6f616420616e79206461746120796574202160008201527f2120000000000000000000000000000000000000000000000000000000000000602082015250565b6000611df3602283611687565b9150611dfe82611d97565b604082019050919050565b60006020820190508181036000830152611e2281611de6565b9050919050565b6000819050919050565b600067ffffffffffffffff82169050919050565b6000611e62611e5d611e5884611e29565b611ab2565b611e33565b9050919050565b611e7281611e47565b82525050565b6000602082019050611e8d6000830184611e69565b92915050565b7f5468697320417574686f72206469646e27742075706c6f616420616e7920446160008201527f746120776974682074686973206e616d652c20706c6561736520636865636b2060208201527f7468652075706c6f616465642066696c65206e616d6520616e6420617574686f60408201527f72206164647265737320616e642074727920616761696e000000000000000000606082015250565b6000611f3b607783611687565b9150611f4682611e93565b608082019050919050565b60006020820190508181036000830152611f6a81611f2e565b9050919050565b600081549050611f80816119fd565b9050919050565b818103611f9557505061206d565b611f9e82611f71565b67ffffffffffffffff811115611fb757611fb66111bc565b5b611fc182546119fd565b611fcc828285611b4d565b6000601f831160018114611ffb5760008415611fe9578287015490505b611ff38582611bbe565b865550612066565b601f19841661200987611a2e565b965061201486611a2e565b60005b8281101561203c57848901548255600182019150600185019450602081019050612017565b868310156120595784890154612055601f891682611ba0565b8355505b6001600288020188555050505b5050505050505b56fe546869732044617461206d61746368657320746865206f6e652073746f72656420627920617574686f722c206974206861736e2774206265656e206d6f6469666965642066726f6d206c61737420757064617465202054686973204461746120646f65736e2774206d617463682c20697420686173206265656e206d6f6469666965642c206974277320646966666572656e742066726f6d206c6173742076657273696f6e2073746f7265642021212020a2646970667358221220bd0b22500d94320f05c9f45623702d27a803e047e6aa4dad4cd11416a1f3447e64736f6c63430008180033",
  "linkReferences": {},
  "deployedLinkReferences": {}
}