{
  "_format": "hh-sol-artifact-1",
  "contractName": "SecureLedger",
  "sourceName": "contracts/SecureLedger.sol",
  "abi": [
    {
      "inputs": [
        {
          "internalType": "address",
          "name": "target",
          "type": "address"
        }
      ],
      "name": "AddressEmptyCode",
      "type": "error"
    },
    {
      "inputs": [
        {
          "internalType": "address",
          "name": "implementation",
          "type": "address"
        }
      ],
      "name": "ERC1967InvalidImplementation",
      "type": "error"
    },
    {
      "inputs": [],
      "name": "ERC1967NonPayable",
      "type": "error"
    },
    {
      "inputs": [],
      "name": "FailedCall",
      "type": "error"
    },
    {
      "inputs": [],
      "name": "InvalidInitialization",
      "type": "error"
    },
    {
      "inputs": [],
      "name": "NotInitializing",
      "type": "error"
    },
    {
      "inputs": [
        {
          "internalType": "address",
          "name": "owner",
          "type": "address"
        }
      ],
      "name": "OwnableInvalidOwner",
      "type": "error"
    },
    {
      "inputs": [
        {
          "internalType": "address",
          "name": "account",
          "type": "address"
        }
      ],
      "name": "OwnableUnauthorizedAccount",
      "type": "error"
    },
    {
      "inputs": [],
      "name": "UUPSUnauthorizedCallContext",
      "type": "error"
    },
    {
      "inputs": [
        {
          "internalType": "bytes32",
          "name": "slot",
          "type": "bytes32"
        }
      ],
      "name": "UUPSUnsupportedProxiableUUID",
      "type": "error"
    },
    {
      "anonymous": false,
      "inputs": [
        {
          "indexed": false,
          "internalType": "uint64",
          "name": "version",
          "type": "uint64"
        }
      ],
      "name": "Initialized",
      "type": "event"
    },
    {
      "anonymous": false,
      "inputs": [
        {
          "indexed": true,
          "internalType": "address",
          "name": "previousOwner",
          "type": "address"
        },
        {
          "indexed": true,
          "internalType": "address",
          "name": "newOwner",
          "type": "address"
        }
      ],
      "name": "OwnershipTransferred",
      "type": "event"
    },
    {
      "anonymous": false,
      "inputs": [
        {
          "indexed": true,
          "internalType": "address",
          "name": "implementation",
          "type": "address"
        }
      ],
      "name": "Upgraded",
      "type": "event"
    },
    {
      "inputs": [
        {
          "internalType": "string",
          "name": "",
          "type": "string"
        }
      ],
      "name": "FileHash",
      "outputs": [
        {
          "internalType": "bytes32",
          "name": "Hash",
          "type": "bytes32"
        },
        {
          "internalType": "string",
          "name": "previous_commit",
          "type": "string"
        },
        {
          "internalType": "string",
          "name": "current_commit",
          "type": "string"
        },
        {
          "internalType": "uint256",
          "name": "timestamp",
          "type": "uint256"
        }
      ],
      "stateMutability": "view",
      "type": "function"
    },
    {
      "inputs": [],
      "name": "UPGRADE_INTERFACE_VERSION",
      "outputs": [
        {
          "internalType": "string",
          "name": "",
          "type": "string"
        }
      ],
      "stateMutability": "view",
      "type": "function"
    },
    {
      "inputs": [
        {
          "internalType": "string",
          "name": "_url",
          "type": "string"
        },
        {
          "internalType": "string",
          "name": "_newContent",
          "type": "string"
        }
      ],
      "name": "checkDataIntegrity",
      "outputs": [
        {
          "internalType": "string",
          "name": "",
          "type": "string"
        },
        {
          "components": [
            {
              "internalType": "bytes32",
              "name": "Hash",
              "type": "bytes32"
            },
            {
              "internalType": "string",
              "name": "previous_commit",
              "type": "string"
            },
            {
              "internalType": "string",
              "name": "current_commit",
              "type": "string"
            },
            {
              "internalType": "uint256",
              "name": "timestamp",
              "type": "uint256"
            }
          ],
          "internalType": "struct SecureLedger.Details",
          "name": "",
          "type": "tuple"
        }
      ],
      "stateMutability": "view",
      "type": "function"
    },
    {
      "inputs": [
        {
          "internalType": "address",
          "name": "initialOwner",
          "type": "address"
        }
      ],
      "name": "initialize",
      "outputs": [],
      "stateMutability": "nonpayable",
      "type": "function"
    },
    {
      "inputs": [],
      "name": "name",
      "outputs": [
        {
          "internalType": "string",
          "name": "",
          "type": "string"
        }
      ],
      "stateMutability": "view",
      "type": "function"
    },
    {
      "inputs": [],
      "name": "owner",
      "outputs": [
        {
          "internalType": "address",
          "name": "",
          "type": "address"
        }
      ],
      "stateMutability": "view",
      "type": "function"
    },
    {
      "inputs": [],
      "name": "proxiableUUID",
      "outputs": [
        {
          "internalType": "bytes32",
          "name": "",
          "type": "bytes32"
        }
      ],
      "stateMutability": "view",
      "type": "function"
    },
    {
      "inputs": [],
      "name": "renounceOwnership",
      "outputs": [],
      "stateMutability": "nonpayable",
      "type": "function"
    },
    {
      "inputs": [
        {
          "internalType": "address",
          "name": "newOwner",
          "type": "address"
        }
      ],
      "name": "transferOwnership",
      "outputs": [],
      "stateMutability": "nonpayable",
      "type": "function"
    },
    {
      "inputs": [
        {
          "internalType": "string",
          "name": "_url",
          "type": "string"
        },
        {
          "internalType": "string",
          "name": "_content",
          "type": "string"
        },
        {
          "internalType": "string",
          "name": "_commit",
          "type": "string"
        }
      ],
      "name": "updateFileHash",
      "outputs": [],
      "stateMutability": "nonpayable",
      "type": "function"
    },
    {
      "inputs": [
        {
          "internalType": "address",
          "name": "newImplementation",
          "type": "address"
        }
      ],
      "name": "upgrade",
      "outputs": [],
      "stateMutability": "nonpayable",
      "type": "function"
    },
    {
      "inputs": [
        {
          "internalType": "address",
          "name": "newImplementation",
          "type": "address"
        },
        {
          "internalType": "bytes",
          "name": "data",
          "type": "bytes"
        }
      ],
      "name": "upgradeToAndCall",
      "outputs": [],
      "stateMutability": "payable",
      "type": "function"
    }
  ],
  "bytecode": "0x60a06040523073ffffffffffffffffffffffffffffffffffffffff1660809073ffffffffffffffffffffffffffffffffffffffff168152506040518060400160405280600e81526020017f4461746120496e74656772697479000000000000000000000000000000000000815250600190816200007d91906200030c565b503480156200008b57600080fd5b50620003f3565b600081519050919050565b7f4e487b7100000000000000000000000000000000000000000000000000000000600052604160045260246000fd5b7f4e487b7100000000000000000000000000000000000000000000000000000000600052602260045260246000fd5b600060028204905060018216806200011457607f821691505b6020821081036200012a5762000129620000cc565b5b50919050565b60008190508160005260206000209050919050565b60006020601f8301049050919050565b600082821b905092915050565b600060088302620001947fffffffffffffffffffffffffffffffffffffffffffffffffffffffffffffffff8262000155565b620001a0868362000155565b95508019841693508086168417925050509392505050565b6000819050919050565b6000819050919050565b6000620001ed620001e7620001e184620001b8565b620001c2565b620001b8565b9050919050565b6000819050919050565b6200020983620001cc565b620002216200021882620001f4565b84845462000162565b825550505050565b600090565b6200023862000229565b62000245818484620001fe565b505050565b5b818110156200026d57620002616000826200022e565b6001810190506200024b565b5050565b601f821115620002bc57620002868162000130565b620002918462000145565b81016020851015620002a1578190505b620002b9620002b08562000145565b8301826200024a565b50505b505050565b600082821c905092915050565b6000620002e160001984600802620002c1565b1980831691505092915050565b6000620002fc8383620002ce565b9150826002028217905092915050565b620003178262000092565b67ffffffffffffffff8111156200033357620003326200009d565b5b6200033f8254620000fb565b6200034c82828562000271565b600060209050601f8311600181146200038457600084156200036f578287015190505b6200037b8582620002ee565b865550620003eb565b601f198416620003948662000130565b60005b82811015620003be5784890151825560018201915060208501945060208101905062000397565b86831015620003de5784890151620003da601f891682620002ce565b8355505b6001600288020188555050505b505050505050565b6080516125f36200041d60003960008181610f2701528181610f7c015261113701526125f36000f3fe6080604052600436106100a75760003560e01c80638da5cb5b116100645780638da5cb5b14610187578063ad3cb1cc146101b2578063bbe99507146101dd578063c4290b1a1461021d578063c4d66de81461025b578063f2fde38b14610284576100a7565b806306fdde03146100ac5780630900f010146100d757806339a439b2146101005780634f1ef2861461012957806352d1902d14610145578063715018a614610170575b600080fd5b3480156100b857600080fd5b506100c16102ad565b6040516100ce91906117e0565b60405180910390f35b3480156100e357600080fd5b506100fe60048036038101906100f99190611874565b61033f565b005b34801561010c57600080fd5b50610127600480360381019061012291906119d6565b610363565b005b610143600480360381019061013e9190611b1e565b61053d565b005b34801561015157600080fd5b5061015a61055c565b6040516101679190611b93565b60405180910390f35b34801561017c57600080fd5b5061018561058f565b005b34801561019357600080fd5b5061019c6105a3565b6040516101a99190611bbd565b60405180910390f35b3480156101be57600080fd5b506101c76105db565b6040516101d491906117e0565b60405180910390f35b3480156101e957600080fd5b5061020460048036038101906101ff9190611bd8565b610614565b6040516102149493929190611c3a565b60405180910390f35b34801561022957600080fd5b50610244600480360381019061023f9190611c8d565b61076a565b604051610252929190611dd7565b60405180910390f35b34801561026757600080fd5b50610282600480360381019061027d9190611874565b610c2b565b005b34801561029057600080fd5b506102ab60048036038101906102a69190611874565b610e02565b005b6060600180546102bc90611e3d565b80601f01602080910402602001604051908101604052809291908181526020018280546102e890611e3d565b80156103355780601f1061030a57610100808354040283529160200191610335565b820191906000526020600020905b81548152906001019060200180831161031857829003601f168201915b5050505050905090565b610347610e88565b610360816040518060200160405280600081525061053d565b50565b60008054906101000a900473ffffffffffffffffffffffffffffffffffffffff1673ffffffffffffffffffffffffffffffffffffffff163373ffffffffffffffffffffffffffffffffffffffff16146103f1576040517f08c379a00000000000000000000000000000000000000000000000000000000081526004016103e890611ee0565b60405180910390fd5b60006103fc83610f0f565b90506000429050816002600001819055506000801b6006866040516104219190611f3c565b90815260200160405180910390206000015403610485576040518060400160405280601081526020017f4265666f7265206578697374656e6365000000000000000000000000000000008152506002600101908161047f91906120ff565b506104b9565b6006856040516104959190611f3c565b9081526020016040518091039020600201600260010190816104b791906121fc565b505b826002800190816104ca91906120ff565b508060026003018190555060026006866040516104e79190611f3c565b9081526020016040518091039020600082015481600001556001820181600101908161051391906122fa565b506002820181600201908161052891906122fa565b50600382015481600301559050505050505050565b610545610f25565b61054e8261100b565b6105588282611016565b5050565b6000610566611135565b7f360894a13ba1a3210667c828492db98dca3e2076cc3735a920a3ca505d382bbc60001b905090565b610597610e88565b6105a160006111bc565b565b6000806105ae611293565b90508060000160009054906101000a900473ffffffffffffffffffffffffffffffffffffffff1691505090565b6040518060400160405280600581526020017f352e302e3000000000000000000000000000000000000000000000000000000081525081565b60068180516020810182018051848252602083016020850120818352809550505050505060009150905080600001549080600101805461065390611e3d565b80601f016020809104026020016040519081016040528092919081815260200182805461067f90611e3d565b80156106cc5780601f106106a1576101008083540402835291602001916106cc565b820191906000526020600020905b8154815290600101906020018083116106af57829003601f168201915b5050505050908060020180546106e190611e3d565b80601f016020809104026020016040519081016040528092919081815260200182805461070d90611e3d565b801561075a5780601f1061072f5761010080835404028352916020019161075a565b820191906000526020600020905b81548152906001019060200180831161073d57829003601f168201915b5050505050908060030154905084565b6060610774611725565b6060600060405180608001604052806000801b8152602001604051806020016040528060008152508152602001604051806020016040528060008152508152602001600081525090506000801b6006876040516107d19190611f3c565b90815260200160405180910390206000015403610810576040518060600160405280604081526020016125046040913991508181935093505050610c24565b60006006876040516108229190611f3c565b9081526020016040518091039020600001549050600061084187610f0f565b9050808203610a395760405180606001604052806031815260200161254460319139935060008054906101000a900473ffffffffffffffffffffffffffffffffffffffff1673ffffffffffffffffffffffffffffffffffffffff163373ffffffffffffffffffffffffffffffffffffffff1603610a2a57836006896040516108c99190611f3c565b908152602001604051809103902080604051806080016040529081600082015481526020016001820180546108fd90611e3d565b80601f016020809104026020016040519081016040528092919081815260200182805461092990611e3d565b80156109765780601f1061094b57610100808354040283529160200191610976565b820191906000526020600020905b81548152906001019060200180831161095957829003601f168201915b5050505050815260200160028201805461098f90611e3d565b80601f01602080910402602001604051908101604052809291908181526020018280546109bb90611e3d565b8015610a085780601f106109dd57610100808354040283529160200191610a08565b820191906000526020600020905b8154815290600101906020018083116109eb57829003601f168201915b5050505050815260200160038201548152505090509550955050505050610c24565b83839550955050505050610c24565b60405180608001604052806049815260200161257560499139935060008054906101000a900473ffffffffffffffffffffffffffffffffffffffff1673ffffffffffffffffffffffffffffffffffffffff163373ffffffffffffffffffffffffffffffffffffffff1603610c195783600689604051610ab89190611f3c565b90815260200160405180910390208060405180608001604052908160008201548152602001600182018054610aec90611e3d565b80601f0160208091040260200160405190810160405280929190818152602001828054610b1890611e3d565b8015610b655780601f10610b3a57610100808354040283529160200191610b65565b820191906000526020600020905b815481529060010190602001808311610b4857829003601f168201915b50505050508152602001600282018054610b7e90611e3d565b80601f0160208091040260200160405190810160405280929190818152602001828054610baa90611e3d565b8015610bf75780601f10610bcc57610100808354040283529160200191610bf7565b820191906000526020600020905b815481529060010190602001808311610bda57829003601f168201915b5050505050815260200160038201548152505090509550955050505050610c24565b838395509550505050505b9250929050565b6000610c356112bb565b905060008160000160089054906101000a900460ff1615905060008260000160009054906101000a900467ffffffffffffffff1690506000808267ffffffffffffffff16148015610c835750825b9050600060018367ffffffffffffffff16148015610cb8575060003073ffffffffffffffffffffffffffffffffffffffff163b145b905081158015610cc6575080155b15610cfd576040517ff92ee8a900000000000000000000000000000000000000000000000000000000815260040160405180910390fd5b60018560000160006101000a81548167ffffffffffffffff021916908367ffffffffffffffff1602179055508315610d4d5760018560000160086101000a81548160ff0219169083151502179055505b610d56866112e3565b610d5e6112f7565b856000806101000a81548173ffffffffffffffffffffffffffffffffffffffff021916908373ffffffffffffffffffffffffffffffffffffffff1602179055508315610dfa5760008560000160086101000a81548160ff0219169083151502179055507fc7f505b2f371ae2175ee4913f4499e1f2633a7b5936321eed1cdaeb6115181d26001604051610df19190612431565b60405180910390a15b505050505050565b610e0a610e88565b600073ffffffffffffffffffffffffffffffffffffffff168173ffffffffffffffffffffffffffffffffffffffff1603610e7c5760006040517f1e4fbdf7000000000000000000000000000000000000000000000000000000008152600401610e739190611bbd565b60405180910390fd5b610e85816111bc565b50565b610e90611301565b73ffffffffffffffffffffffffffffffffffffffff16610eae6105a3565b73ffffffffffffffffffffffffffffffffffffffff1614610f0d57610ed1611301565b6040517f118cdaa7000000000000000000000000000000000000000000000000000000008152600401610f049190611bbd565b60405180910390fd5b565b6000808280519060200120905080915050919050565b7f000000000000000000000000000000000000000000000000000000000000000073ffffffffffffffffffffffffffffffffffffffff163073ffffffffffffffffffffffffffffffffffffffff161480610fd257507f000000000000000000000000000000000000000000000000000000000000000073ffffffffffffffffffffffffffffffffffffffff16610fb9611309565b73ffffffffffffffffffffffffffffffffffffffff1614155b15611009576040517fe07c8dba00000000000000000000000000000000000000000000000000000000815260040160405180910390fd5b565b611013610e88565b50565b8173ffffffffffffffffffffffffffffffffffffffff166352d1902d6040518163ffffffff1660e01b8152600401602060405180830381865afa92505050801561107e57506040513d601f19601f8201168201806040525081019061107b9190612478565b60015b6110bf57816040517f4c9c8ce30000000000000000000000000000000000000000000000000000000081526004016110b69190611bbd565b60405180910390fd5b7f360894a13ba1a3210667c828492db98dca3e2076cc3735a920a3ca505d382bbc60001b811461112657806040517faa1d49a400000000000000000000000000000000000000000000000000000000815260040161111d9190611b93565b60405180910390fd5b6111308383611360565b505050565b7f000000000000000000000000000000000000000000000000000000000000000073ffffffffffffffffffffffffffffffffffffffff163073ffffffffffffffffffffffffffffffffffffffff16146111ba576040517fe07c8dba00000000000000000000000000000000000000000000000000000000815260040160405180910390fd5b565b60006111c6611293565b905060008160000160009054906101000a900473ffffffffffffffffffffffffffffffffffffffff169050828260000160006101000a81548173ffffffffffffffffffffffffffffffffffffffff021916908373ffffffffffffffffffffffffffffffffffffffff1602179055508273ffffffffffffffffffffffffffffffffffffffff168173ffffffffffffffffffffffffffffffffffffffff167f8be0079c531659141344cd1fd0a4f28419497f9722a3daafe3b4186f6b6457e060405160405180910390a3505050565b60007f9016d09d72d40fdae2fd8ceac6b6234c7706214fd39c1cd1e609a0528c199300905090565b60007ff0c57e16840df040f15088dc2f81fe391c3923bec73e23a9662efc9c229c6a00905090565b6112eb6113d3565b6112f481611413565b50565b6112ff6113d3565b565b600033905090565b60006113377f360894a13ba1a3210667c828492db98dca3e2076cc3735a920a3ca505d382bbc60001b611499565b60000160009054906101000a900473ffffffffffffffffffffffffffffffffffffffff16905090565b611369826114a3565b8173ffffffffffffffffffffffffffffffffffffffff167fbc7cd75a20ee27fd9adebab32041f755214dbc6bffa90cc0225b39da2e5c2d3b60405160405180910390a26000815111156113c6576113c08282611570565b506113cf565b6113ce6115f4565b5b5050565b6113db611631565b611411576040517fd7e6bcf800000000000000000000000000000000000000000000000000000000815260040160405180910390fd5b565b61141b6113d3565b600073ffffffffffffffffffffffffffffffffffffffff168173ffffffffffffffffffffffffffffffffffffffff160361148d5760006040517f1e4fbdf70000000000000000000000000000000000000000000000000000000081526004016114849190611bbd565b60405180910390fd5b611496816111bc565b50565b6000819050919050565b60008173ffffffffffffffffffffffffffffffffffffffff163b036114ff57806040517f4c9c8ce30000000000000000000000000000000000000000000000000000000081526004016114f69190611bbd565b60405180910390fd5b8061152c7f360894a13ba1a3210667c828492db98dca3e2076cc3735a920a3ca505d382bbc60001b611499565b60000160006101000a81548173ffffffffffffffffffffffffffffffffffffffff021916908373ffffffffffffffffffffffffffffffffffffffff16021790555050565b60606000808473ffffffffffffffffffffffffffffffffffffffff168460405161159a91906124ec565b600060405180830381855af49150503d80600081146115d5576040519150601f19603f3d011682016040523d82523d6000602084013e6115da565b606091505b50915091506115ea858383611651565b9250505092915050565b600034111561162f576040517fb398979f00000000000000000000000000000000000000000000000000000000815260040160405180910390fd5b565b600061163b6112bb565b60000160089054906101000a900460ff16905090565b60608261166657611661826116e0565b6116d8565b6000825114801561168e575060008473ffffffffffffffffffffffffffffffffffffffff163b145b156116d057836040517f9996b3150000000000000000000000000000000000000000000000000000000081526004016116c79190611bbd565b60405180910390fd5b8190506116d9565b5b9392505050565b6000815111156116f35780518082602001fd5b6040517fd6bda27500000000000000000000000000000000000000000000000000000000815260040160405180910390fd5b6040518060800160405280600080191681526020016060815260200160608152602001600081525090565b600081519050919050565b600082825260208201905092915050565b60005b8381101561178a57808201518184015260208101905061176f565b60008484015250505050565b6000601f19601f8301169050919050565b60006117b282611750565b6117bc818561175b565b93506117cc81856020860161176c565b6117d581611796565b840191505092915050565b600060208201905081810360008301526117fa81846117a7565b905092915050565b6000604051905090565b600080fd5b600080fd5b600073ffffffffffffffffffffffffffffffffffffffff82169050919050565b600061184182611816565b9050919050565b61185181611836565b811461185c57600080fd5b50565b60008135905061186e81611848565b92915050565b60006020828403121561188a5761188961180c565b5b60006118988482850161185f565b91505092915050565b600080fd5b600080fd5b7f4e487b7100000000000000000000000000000000000000000000000000000000600052604160045260246000fd5b6118e382611796565b810181811067ffffffffffffffff82111715611902576119016118ab565b5b80604052505050565b6000611915611802565b905061192182826118da565b919050565b600067ffffffffffffffff821115611941576119406118ab565b5b61194a82611796565b9050602081019050919050565b82818337600083830152505050565b600061197961197484611926565b61190b565b905082815260208101848484011115611995576119946118a6565b5b6119a0848285611957565b509392505050565b600082601f8301126119bd576119bc6118a1565b5b81356119cd848260208601611966565b91505092915050565b6000806000606084860312156119ef576119ee61180c565b5b600084013567ffffffffffffffff811115611a0d57611a0c611811565b5b611a19868287016119a8565b935050602084013567ffffffffffffffff811115611a3a57611a39611811565b5b611a46868287016119a8565b925050604084013567ffffffffffffffff811115611a6757611a66611811565b5b611a73868287016119a8565b9150509250925092565b600067ffffffffffffffff821115611a9857611a976118ab565b5b611aa182611796565b9050602081019050919050565b6000611ac1611abc84611a7d565b61190b565b905082815260208101848484011115611add57611adc6118a6565b5b611ae8848285611957565b509392505050565b600082601f830112611b0557611b046118a1565b5b8135611b15848260208601611aae565b91505092915050565b60008060408385031215611b3557611b3461180c565b5b6000611b438582860161185f565b925050602083013567ffffffffffffffff811115611b6457611b63611811565b5b611b7085828601611af0565b9150509250929050565b6000819050919050565b611b8d81611b7a565b82525050565b6000602082019050611ba86000830184611b84565b92915050565b611bb781611836565b82525050565b6000602082019050611bd26000830184611bae565b92915050565b600060208284031215611bee57611bed61180c565b5b600082013567ffffffffffffffff811115611c0c57611c0b611811565b5b611c18848285016119a8565b91505092915050565b6000819050919050565b611c3481611c21565b82525050565b6000608082019050611c4f6000830187611b84565b8181036020830152611c6181866117a7565b90508181036040830152611c7581856117a7565b9050611c846060830184611c2b565b95945050505050565b60008060408385031215611ca457611ca361180c565b5b600083013567ffffffffffffffff811115611cc257611cc1611811565b5b611cce858286016119a8565b925050602083013567ffffffffffffffff811115611cef57611cee611811565b5b611cfb858286016119a8565b9150509250929050565b611d0e81611b7a565b82525050565b600082825260208201905092915050565b6000611d3082611750565b611d3a8185611d14565b9350611d4a81856020860161176c565b611d5381611796565b840191505092915050565b611d6781611c21565b82525050565b6000608083016000830151611d856000860182611d05565b5060208301518482036020860152611d9d8282611d25565b91505060408301518482036040860152611db78282611d25565b9150506060830151611dcc6060860182611d5e565b508091505092915050565b60006040820190508181036000830152611df181856117a7565b90508181036020830152611e058184611d6d565b90509392505050565b7f4e487b7100000000000000000000000000000000000000000000000000000000600052602260045260246000fd5b60006002820490506001821680611e5557607f821691505b602082108103611e6857611e67611e0e565b5b50919050565b7f796f7572206164647265737320646f6573656e2774206861766520616363657360008201527f7320746f20757064617465207468652044617461000000000000000000000000602082015250565b6000611eca60348361175b565b9150611ed582611e6e565b604082019050919050565b60006020820190508181036000830152611ef981611ebd565b9050919050565b600081905092915050565b6000611f1682611750565b611f208185611f00565b9350611f3081856020860161176c565b80840191505092915050565b6000611f488284611f0b565b915081905092915050565b60008190508160005260206000209050919050565b60006020601f8301049050919050565b600082821b905092915050565b600060088302611fb57fffffffffffffffffffffffffffffffffffffffffffffffffffffffffffffffff82611f78565b611fbf8683611f78565b95508019841693508086168417925050509392505050565b6000819050919050565b6000611ffc611ff7611ff284611c21565b611fd7565b611c21565b9050919050565b6000819050919050565b61201683611fe1565b61202a61202282612003565b848454611f85565b825550505050565b600090565b61203f612032565b61204a81848461200d565b505050565b5b8181101561206e57612063600082612037565b600181019050612050565b5050565b601f8211156120b35761208481611f53565b61208d84611f68565b8101602085101561209c578190505b6120b06120a885611f68565b83018261204f565b50505b505050565b600082821c905092915050565b60006120d6600019846008026120b8565b1980831691505092915050565b60006120ef83836120c5565b9150826002028217905092915050565b61210882611750565b67ffffffffffffffff811115612121576121206118ab565b5b61212b8254611e3d565b612136828285612072565b600060209050601f8311600181146121695760008415612157578287015190505b61216185826120e3565b8655506121c9565b601f19841661217786611f53565b60005b8281101561219f5784890151825560018201915060208501945060208101905061217a565b868310156121bc57848901516121b8601f8916826120c5565b8355505b6001600288020188555050505b505050505050565b6000815490506121e081611e3d565b9050919050565b60008190508160005260206000209050919050565b81810361220a5750506122e2565b612213826121d1565b67ffffffffffffffff81111561222c5761222b6118ab565b5b6122368254611e3d565b612241828285612072565b6000601f831160018114612270576000841561225e578287015490505b61226885826120e3565b8655506122db565b601f19841661227e876121e7565b965061228986611f53565b60005b828110156122b15784890154825560018201915060018501945060208101905061228c565b868310156122ce57848901546122ca601f8916826120c5565b8355505b6001600288020188555050505b5050505050505b565b6000815490506122f381611e3d565b9050919050565b8181036123085750506123e0565b612311826122e4565b67ffffffffffffffff81111561232a576123296118ab565b5b6123348254611e3d565b61233f828285612072565b6000601f83116001811461236e576000841561235c578287015490505b61236685826120e3565b8655506123d9565b601f19841661237c87611f53565b965061238786611f53565b60005b828110156123af5784890154825560018201915060018501945060208101905061238a565b868310156123cc57848901546123c8601f8916826120c5565b8355505b6001600288020188555050505b5050505050505b565b6000819050919050565b600067ffffffffffffffff82169050919050565b600061241b612416612411846123e2565b611fd7565b6123ec565b9050919050565b61242b81612400565b82525050565b60006020820190506124466000830184612422565b92915050565b61245581611b7a565b811461246057600080fd5b50565b6000815190506124728161244c565b92915050565b60006020828403121561248e5761248d61180c565b5b600061249c84828501612463565b91505092915050565b600081519050919050565b600081905092915050565b60006124c6826124a5565b6124d081856124b0565b93506124e081856020860161176c565b80840191505092915050565b60006124f882846124bb565b91508190509291505056fe546869732055524c20697320696e76616c69642c706c6561736520636865636b207468652075706c6f616465642066696c6520616e642074727920616761696e746869732044617461206861736e2774206265656e206d6f6469666965642066726f6d206c61737420757064617465202054686973204461746120686173206265656e206d6f6469666965642c206974277320646966666572656e742066726f6d206c6173742076657273696f6e2073746f7265642021212020a26469706673582212209d023606263b4301eea1a5a5067e9035d1ef27288ebab691501d6adc5fff4df864736f6c63430008180033",
  "linkReferences": {},
  "deployedLinkReferences": {}
}